:020000040800F2
:10000000D00F00204D020008CF200008A31E0008DA
:10001000CD20000843040008F92300080000000078
:10002000000000000000000000000000D3200008D5
:100030002105000800000000D1200008D52000089C
:1000400067020008670200086702000867020008EC
:1000500067020008670200086702000867020008DC
:1000600067020008670200086702000867020008CC
:100070007504000867020008810400086702000890
:1000800067020008670200086702000851040008C0
:1000900045040008670200086702000867020008BC
:1000A000670200086702000867020008670200088C
:1000B000670200086702000867020008670200087C
:1000C000670200086702000867020008670200086C
:1000D000670200086702000867020008670200085C
:1000E000670200086702000867020008670200084C
:1000F000670200086702000867020008670200083C
:10010000670200086702000867020008670200082B
:10011000670200086702000867020008670200081B
:10012000670200088D0400086702000867020008E3
:1001300067020008670200086702000869040008F7
:100140005D040008670200086702000867020008F3
:10015000670200089904000867020008ED23000800
:1001600067020008670200086702000867020008CB
:10017000670200086702000867020008000000002C
:1001800067020008670200087D2100086702000876
:10019000670200086702000867020008670200089B
:1001A00000000000000000006702000800F002F8F4
:1001B00000F03CF80AA090E8000C82448344AAF1C5
:1001C0000107DA4501D100F031F8AFF2090EBAE8C3
:1001D0000F0013F0010F18BFFB1A43F0010318477B
:1001E0001828000038280000103A24BF78C878C1C9
:1001F000FAD8520724BF30C830C144BF04680C602D
:10020000704700000023002400250026103A28BF74
:1002100078C1FBD8520728BF30C148BF0B60704778
:100220001FB502F0D3FB1FBD10B510BD00F0CFF815
:100230001146FFF7F5FF02F0E3F900F0EDF803B423
:10024000FFF7F2FF03BC00F0F5F800000948804713
:1002500009480047FEE7FEE7FEE7FEE7FEE7FEE7A8
:10026000FEE7FEE7FEE7FEE704480549054A064BC0
:10027000704700006D210008AD010008D009002082
:10028000D00F0020D00B0020D00B002053EA020C2E
:1002900000F069802DE9F04B4FF00006002B1FBFE6
:1002A000B3FA83F503FA05F424FA05F65E4012BFAB
:1002B0001643B2FA82F502FA05F4C5F120051EBF15
:1002C00022FA05FC44EA0C04203556EA044C4FEAB5
:1002D000144418BF641C4FF000084FF0000990420E
:1002E00071EB030C39D3002919BFB1FA81F701FA78
:1002F00007F6B0FA80F700FA07F6C7F120071EBF2D
:1003000020FA07FC46EA0C062037B6FBF4FCA7EB04
:100310000507103F07F01F0BCBF120060CFA0BFB73
:100320002CFA06F644BFB3460026202FA4BF5E4633
:100330004FF0000B5BEA060C08BF4FF0010B19EB06
:100340000B09ABFB027C48EB0608C01B06FB02CC8A
:100350000BFB03CC71EB0C01C1E70B460246414697
:100360004846BDE8F08B13B54FF000004FF0000198
:10037000AFF30080BDE81C4070474FF0000200B5AD
:10038000134694469646203922BFA0E80C50A0E8B8
:100390000C50B1F12001BFF4F7AF090728BFA0E866
:1003A0000C5048BF0CC05DF804EB890028BF40F832
:1003B000042B08BF704748BF20F8022B11F0804F74
:1003C00018BF00F8012B704770477047704775469B
:1003D00000F02CF8AE4605006946534620F00700B1
:1003E000854618B020B5FFF73FFFBDE820404FF02D
:1003F00000064FF000074FF000084FF0000B21F00F
:100400000701AC46ACE8C009ACE8C009ACE8C009DB
:10041000ACE8C0098D46704710B50446AFF30080C4
:100420002046BDE81040FFF70ABF000000487047B3
:100430007009002001491820ABBEFEE7260002002B
:100440007047FEE7014800F0EAB9000018000020FC
:10045000014800F0E4B9000018000020014800F055
:10046000DEB9000040000020014800F0D8B90000CB
:1004700040000020014800F0F3BC00008001002093
:10048000014800F0EDBC000020010020014800F010
:10049000E7BC0000E0010020014800F0E1BC0000E2
:1004A0004002002001681823CAB2103AB2FBF3F2EE
:1004B000054B6FF30901032A9B5CC36500D9091D35
:1004C0008165084670470000D629000810B501462E
:1004D00000208B698A6A4FF0C07453B1B3F5005F96
:1004E00015D072B1012A0CD0022A0AD0032A09D1F0
:1004F00004E01AB1012A06D0022A03D1C96AC9014F
:1005000000D5012010BDC96AA142FAD010BD002A51
:10051000F7D0012AF2D0022AF3D0032AF3D010BD7B
:10052000704772B6FEE790F82020012A07D0022A11
:1005300005D0416A41F48021416201207047006882
:1005400042690A43426100207047F0B590F820509C
:100550000468A468012D05D0022D03D0416A41F43E
:1005600080215DE014F0406F01D1E50055D5C4F362
:100570000164022C03D9416A41F4000150E00125D5
:10058000A5401D608D684FF4C0739DB1CE683543A2
:100590004E6845EAC605066803EB0417F5514FF4AB
:1005A000C275076805EB04150E697E51097D0129A6
:1005B00005D009E00E88CD6845EA4655EBE70168AD
:1005C0004E5946F480764E511179D579567941EAE3
:1005D000056195792D0445EA062529434FF4C67631
:1005E000056806EB0416A9511178D57841EA056132
:1005F000957852782D0445EA022211434FF4C475D0
:10060000026805EB04155151006803EB04114258D0
:1006100042F0010242500020F0BD416A41F4001155
:1006200041620120F0BD000010B590F82020012AA1
:1006300007D0022A05D0416A41F48021416201209D
:1006400010BD3B48D0F8002242F00102C0F8002261
:10065000D0F8002222F47C52C0F80022D0F8002208
:100660004B6A42EA0322C0F800220A7D02F01F030F
:1006700001229A40D0F81C329343C0F81C32CB6957
:10068000B3B9D0F80C329343C0F80C328C894B6864
:1006900064F31F434C6900EBC404C4F840320C8976
:1006A0000B6864F31F434C6900EBC404C4F8443284
:1006B000CB69012B16D1D0F80C321343C0F80C32A1
:1006C0000C884B6864F31F434C6900EBC404C4F806
:1006D00040320C89CB6864F31F434C6900EBC404BF
:1006E000C4F844328B69002BD0F804320ED0134387
:1006F000C0F804320B69002BD0F8143208D0134331
:10070000C0F81432096A012904D008E09343EFE7E6
:100710009343F5E7D0F81C121143C0F81C12D0F82F
:10072000001221F00101C0F80012002010BD0000ED
:1007300000640040704730B590F82040012C05D08F
:10074000022C03D0416A41F480215DE00468002955
:1007500055D02469A40754D04FF4D874056804EB2D
:1007600001142D5915F00405956005682D594ED0DA
:10077000ED08556005682C5904F00204D4604FF46C
:10078000DA74056804EB01142D5905F00F051561A5
:1007900005682D59C5F30725956105682C59240C6A
:1007A00054614FF4DC72046802EB0112A4581C700F
:1007B0000468A458240A5C700468A458240C9C7033
:1007C0000468A258120EDA704FF4DE72046802EB6D
:1007D0000112A4581C710468A458240A5C710468AE
:1007E000A458240C9C710468A258120EDA71006897
:1007F00081B1016941F020010161002030BDE46850
:10080000A8E7416A41F400114162012030BD6D0D3D
:100810001560AFE7C16841F02001C160EDE72DE947
:10082000F05F0546006800244669D0F804908768A8
:10083000D0F80CB0D0F810A0D0F81880F10748D04C
:10084000F90714D001218160B80703D5284600F0CC
:10085000A6FA0CE0780702D54FF4006407E03807E9
:1008600002D54FF4805402E0284600F097FAF805CC
:1008700016D529684FF480708860B80503D52846DE
:1008800000F08FFA0CE0780502D544F4005407E03C
:10089000380502D544F4804402E0284600F080FA8E
:1008A000F80316D529684FF480308860B80303D563
:1008B000284600F078FA0CE0780302D544F40044AE
:1008C00007E0380302D544F4803402E0284600F003
:1008D00069FA300707D55FEACB6004D52968102094
:1008E00044F40074C86070074FF0080707D55FEA4A
:1008F0000B7004D52868C760284600F0A9F9B00736
:1009000006D52868C068800702D0284600F0A2F902
:10091000700607D55FEACA6004D52968102044F440
:1009200080640861B00607D55FEA0A7004D52868BC
:100930000761284600F002FAF00606D5286800692B
:10094000800702D0284600F0FAF9B00308D55FEA24
:10095000C96005D5296810204860284600F0F0F9E4
:10096000F00307D55FEA097004D528684760284678
:1009700000F01AFA300446D55FEA497040D5F00518
:1009800004D55FEAC87001D044F00104B00504D575
:100990005FEA887001D544F00204700504D55FEA6F
:1009A000487001D544F00404300529D518F0700FC3
:1009B00026D008F07000402815D006DC102809D099
:1009C00020280AD0302816D10AE050280ED06028FE
:1009D00011D10EE044F008040DE044F010040AE0E8
:1009E00044F0200407E044F0400404E044F08004B4
:1009F00001E044F480742868816921F0700181610C
:100A0000296804204860002C05D0686A2043686289
:100A10002846FFF78FFEBDE8F09F70B5040003D0B5
:100A200094F8200010B104E0012070BD204600F0D1
:100A300081F82068016841F00101016000F07CFC50
:100A40000546052604E000F077FC401B0A2811D873
:100A500020684068C007F6D02068016821F00201D4
:100A6000016000F069FC05460BE000F065FC401BEE
:100A70000A2806D9606A40F40030606284F8206079
:100A8000D2E7206840688007EFD4207E01282068E4
:100A900001683DD021F080010160607E012820685E
:100AA000016838D021F040010160A07E0128206853
:100AB000016833D021F020010160E07E0128206828
:100AC00001682ED041F010010160207F01282068CC
:100AD000016829D021F008010160607F01282068A9
:100AE000016824D021F004010160D4E90201084327
:100AF000D4E90412114308436168491E0843216880
:100B0000C86100206062012084F82000002070BDD0
:100B100041F08001C0E741F04001C5E741F020010C
:100B2000CAE721F01001CFE741F00801D4E741F016
:100B30000401D9E7F0B587B0044614216846FFF7F1
:100B40001CFC3E4B3E48DFF8F0E01968D4F800C0CA
:100B50003B4A03250226092710300024491CF4458E
:100B60002AD11960012907D1016841F000710160A3
:100B7000006800F000700590106840F008001060F8
:100B80001068CDE9005600F00800CDE90470694610
:100B90002C48CDE9024500F0AFFA002201211320D4
:100BA00000F038FC132000F027FC00220121142063
:100BB00000F030FC14203BE0DFF88CE0F44539D144
:100BC000D0F800C04CF0806CC0F800C0D0F800C075
:100BD00001290CF0806CCDF814C0196007D10168B0
:100BE00041F000710160006800F00070059010682D
:100BF00040F002001060106802AB00F002000590A7
:100C00004FF44050CDE9000683E8B00069460F4834
:100C100000F072FA002201213F2000F0FBFB3F2090
:100C200000F0EAFB00220121402000F0F3FB40200D
:100C300000F0E2FB07B0F0BD0064004000000020BF
:100C400030380240000C02400068004000040240BE
:100C50007047000010B58AB0044600200790089045
:100C60002D492068884230D107AB6A4600212B48C5
:100C7000FFF761FD0098A0F20120062825D2DFE8E9
:100C800000F003070D12181D254A264907A81AE08F
:100C9000234A2449B0320C3107A814E02149224AE2
:100CA000183107A80FE0204A1E49B032243107A8A6
:100CB00009E01C491D4A303107A804E01B4A1949C4
:100CC000B0323C3107A801F05BFC1949206888422A
:100CD00020D1124807AB6A4600212830FFF72BFDD0
:100CE0000098A0F50070013808D001280BD0022828
:100CF00010D10C490F4A603107A809E009490E4A92
:100D0000483107A804E00B4A0649B03A543107A815
:100D100001F036FC0AB010BD00640040180000204D
:100D2000A0020020D0080020000400206005002060
:100D30000068004020080020C0060020704770476F
:100D40007047000070B5044690F82000012804D0D8
:100D5000606A40F40020606218E0022084F82000FD
:100D60002068016821F00101016000F0E5FA054604
:100D70000EE000BF00F0E0FA401B0A2808D9606AC4
:100D800040F400306062052084F82000012070BD2E
:100D900020684068C007EDD1606270BD7047704741
:100DA000704770477047704770472DE9F04104461F
:100DB000876D00F0C1FA064694F835000025022838
:100DC00006D08020606584F834500120BDE8F081B1
:100DD0002068016821F0160101602068416921F056
:100DE00080014161206C08B9A06C20B120680168C5
:100DF00021F0080101602068016821F00101016013
:100E00000CE000F099FA801B052807D920206065C6
:100E1000032084F8350084F83450D7E72068006850
:100E2000C007EED194F85C103F208840B8600120E4
:100E300084F8350084F834500020C7E790F8351066
:100E4000022903D08021416501207047052180F8E7
:100E500035100068016821F0010101600020704731
:100E60002DE9F84304464FF00009CDF8009063489F
:100E70004FF41651A56D0068B0FBF1F72E6894F899
:100E80005C10082000FA01F131420FD021680A6895
:100E900052070BD50A6822F004020A6094F85C102D
:100EA0008840A860606D40F00100606594F85C10B7
:100EB0004FF0010808FA01F0304208D02168496972
:100EC000090604D5A860606D40F00200606594F8E2
:100ED0005C1004208840304208D0216809688907E6
:100EE00004D5A860606D40F00400606594F85C1063
:100EF00010208840304218D021680968090714D5AD
:100F0000A86020680168490304D50068000308D57B
:100F1000A16C07E00168C90503D4016821F008014C
:100F20000160216C09B12046884794F85C102020AC
:100F30008840304231D021680968C9062DD5A860A3
:100F400094F8350005282068016806D0490347D584
:100F5000006800031DD4616C1CE021F016010160E3
:100F60002068416921F080014161206C08B9A06CC2
:100F700020B12068016821F00801016094F85C103C
:100F80003F208840A86084F8358084F83490216D33
:100F90001FE0E16B09B120468847606D00282BD027
:100FA000606DC00714D0052084F835002068016802
:100FB00021F0010101600098401C0090B84203D864
:100FC00020680068C007F6D184F8358084F8349032
:100FD000E16C002910D001B02046BDE8F04308477D
:100FE0000168C905D5D4016821F01001016084F8B9
:100FF000358084F83490CCE7BDE8F88314000020F5
:101000002DE9F041044600F097F906465CB1022054
:1010100084F83500002584F834502068016821F0F8
:10102000010101600DE00120BDE8F08100F084F9CC
:10103000801B052805D920206065032084F8350031
:10104000F2E720680068C007F0D1226811682048E4
:101050000140D4E901031843D4E90336334318436C
:1010600063691843A3691843E3691843236A184363
:101070000843616A042903D1D4E90B1319430843D7
:10108000106020684069666A20F0070130460E4310
:10109000012704280CD1A06A0643E06A40B120462B
:1010A000FFF714FA20B14020606584F83570BAE784
:1010B000206846612046FFF7F5F994F85C203F214F
:1010C00091408160656584F835700020ACE70000D0
:1010D0003F8010F070B5044600F02EF90546601C04
:1010E00002D004480078044400F026F9401BA042D6
:1010F000FAD370BD080000202DE9F84FDFF8F8A101
:10110000002201240AF1040B03254FF00F090BF113
:10111000040E00BF0B6804FA02F63340B34270D1EC
:101120000F7907F00307012F01D0022F16D187682E
:101130004FEA420805FA08FC27EA0C07D1F80CC070
:101140000CFA08FC4CEA070CC0F808C04768B74323
:101150000E79C6F3001696403E4346600E79F6437C
:10116000B6070AD0C7684FEA420C05FA0CF6B74337
:101170008E6806FA0CF63E43C6600E7906F003064A
:10118000022E10D1D60800EB8608D8F82060570749
:101190004FEAD76C09FA0CF7BE430F6907FA0CF750
:1011A0003743C8F8207006684FEA420C05FA0CF77E
:1011B000BE430F7907F0030707FA0CF737430760C0
:1011C0004E6816F4403F1CD04C4E376847F48047B9
:1011D0003760366822F0030706F480460096484ED2
:1011E00007EB060CDCF8086897073F0F09FA07F8C9
:1011F00026EA0806DFF80C81404503D14FF00008CD
:1012000041E072E0DFF80081404502D14FF0010873
:1012100039E0DFF8F880404502D14FF0020832E0B3
:10122000DFF8EC80404502D14FF003082BE0DFF8F7
:10123000E480404502D14FF0040824E0DFF8D88074
:10124000404502D14FF005081DE0DFF8D080404551
:1012500002D14FF0060816E0DFF8C480404502D105
:101260004FF007080FE0DFF8BC80404502D14FF097
:10127000080808E0DFF8B080404502D14FF00908C7
:1012800001E04FF00A0808FA07F848EA0608CCF827
:101290000888DAF800605746D1F804C09E435FEA38
:1012A000CC3C00D51E433E60DBF800605F46D1F8C1
:1012B00004C09E435FEA8C3C00D51E433E60DEF8CE
:1012C00000607746D1F804C09E435FEACC2C00D57D
:1012D0001E433E60084F0C373E68D1F804C09E4361
:1012E0005FEA8C2C00D51E433E60521C102AFFF48E
:1012F00011AFBDE8F88F0000003C014044380240C7
:10130000003001400000024000040240000802409A
:10131000000C02400010024000140240001802407D
:10132000001C024000200240002402400AB18161FA
:1013300070470904FBE7000001488068704700001F
:1013400008000020024881680278114481607047DB
:10135000080000200B4810B5016841F400710160DD
:10136000016841F480610160016841F480710160AD
:10137000032000F06FF80F2000F006F800F024F8CA
:10138000002010BD003C024070B50D4D04464FF4E6
:101390007A712878B1FBF0F00A490968B1FBF0F0E6
:1013A00000F00CFB48B9102C07D200222146501E39
:1013B00000F030F800206C6070BD012070BD0000AE
:1013C00008000020140000200A4808B5016841F414
:1013D00080410160006800F4804000900548001FD3
:1013E000016841F080510160006800F08050009079
:1013F00008BD000044380240002809DB00F01F024D
:10140000012191404009800000F1E020C0F8001166
:1014100070470000F0B40E4B1B680C46C3F3022368
:10142000C3F10705042D00D90425191D072901D290
:10143000002300E0DB1E012606FA05F1491E2140CB
:1014400099409E40761E16403143F0BC00F0D5BF57
:101450000CED00E0064900F0070208684FF6FF03B4
:10146000184040EA0220034A104308607047000019
:101470000CED00E00000FA052DE9F0470E460500EE
:1014800065D0DFF81481D8F80000F7B200F00F0043
:10149000B04207D288F80070D8F8000000F00F00C2
:1014A000B04254D128683D4C810712D5400703D57E
:1014B000206840F4E05020602878000703D52068B9
:1014C00040F4604020602068A96820F0F0000843E4
:1014D00020602878C0072DD0304968680839012875
:1014E00012D0022813D0032811D0096889070029D7
:1014F0002DDA216821F0030101432160FFF71CFF71
:10150000814641F2883A0EE009688903EFE70968ED
:101510008901ECE7FFF710FFA0EB0901514502D963
:101520000320BDE8F0872068696800F00C00B0EB8C
:10153000810FEFD1D8F80010404601F00F01B14201
:1015400007D90770006800F00F00B04201D00120F9
:10155000E7E72878400705D52068E96820F4E050DF
:10156000084320602878000706D52068296920F400
:10157000604040EAC100206000F038F82168084A65
:10158000C1F30311515CC840064908600648006871
:10159000FFF7FAFE0020C4E7003C02400838024092
:1015A000DE290008140000200C0000200448054932
:1015B00000680968044AC1F38221515CC840704741
:1015C0001400002008380240EE29000804480549AC
:1015D00000680968044AC1F34231515CC840704751
:1015E0001400002008380240EE290008154810B504
:1015F000006810F00C02144813D01449042A0FD0CC
:10160000082A0ED10F4C241F2268236802F03F02E3
:101610005B0207D52068C0F38810A0FB010106E03B
:10162000084610BD2168C1F38811A1FB0001002309
:10163000FEF72CFE2168C1F30141491C4900B0FBB3
:10164000F1F010BD083802400024F400001BB70080
:101650002DE9F84F04006ED02078DFF84C93C007D6
:10166000A9F104054AD009F104000168C1F3810120
:10167000012908D00068C0F3810002280AD1D9F8F6
:101680000000400206D52868800337D5606800282E
:10169000E1D033E06068B0F5803F10D0B0F5A02F06
:1016A000286810D020F480302860286820F480203A
:1016B00028606068A8B1FFF73FFE06460DE0286885
:1016C00040F48030F4E740F480202860F7E700BF62
:1016D000FFF732FE801B642873D828688003F7D593
:1016E0000CE0FFF729FE064605E000BFFFF724FEE9
:1016F000801B6428F0D828688003F7D42078DFF8AE
:10170000AC8280074FF0000A3ED5A748001D016853
:1017100011F00C0F08D00068C0F3810002280BD133
:10172000D9F80000400207D42868800716D5E06881
:10173000012800D112E033E1E068B8B10120C8F817
:101740000000FFF7F9FD064605E000BFFFF7F4FDD6
:10175000801B0228C0D828688007F7D5286821692F
:1017600020F0F80040EAC10028600DE0C8F800A0B1
:10177000FFF7E2FD064604E0FFF7DEFD801B0228CE
:101780001FD828688007F7D42078000722D5864F15
:1017900087486169703771B101210160FFF7CCFDA5
:1017A000064604E0FFF7C8FD801B022809D8386808
:1017B0008007F7D50EE0C0F800A0FFF7BDFD064694
:1017C00005E082E0FFF7B8FD801B02287DD838686D
:1017D0008007F7D42078400768D5DFF8CCB1002720
:1017E0000BF13C0BDBF80000C0000BD4DBF8001061
:1017F00041F08051CBF80010DBF80000012700F029
:10180000805000906B4E3068C00510D4306840F4B2
:1018100080703060FFF790FD009005E0FFF78CFDD1
:101820000099401A022850D83068C005F6D55E4E9F
:10183000A0686C3601280FD00528306810D020F041
:1018400001003060306820F004003060A068B8B15A
:10185000FFF772FD00900FE0306840F00100F4E700
:1018600040F004003060F7E7FFF766FD0099411A89
:1018700041F28830814266D830688007F4D50EE0A6
:10188000FFF75AFD009007E0FFF756FD0099411A57
:1018900041F28830814256D830688007F4D42FB1A5
:1018A000DBF8001021F08051CBF80010A069C8B31C
:1018B0003D49091D0968C1F3810102294AD0022866
:1018C000504607D0C8F8600000E03CE0FFF734FD68
:1018D00004463BE04746C8F86000FFF72DFD06468A
:1018E00005E000BFFFF728FD801B02282BD82868E1
:1018F0008001F7D4D4E907010843A16A2E4A4908B8
:1019000002EB0141626A41EA8211084394F82C100B
:1019100040EA0161C9F8001001203866FFF70CFDAC
:10192000044606E03EE000BFFFF706FD001B02286C
:1019300009D828688001F7D534E000BFFFF7FCFC28
:10194000001B022802D90320BDE8F88F2868800117
:10195000F4D427E00128F7D0D9F80000E26900F4B8
:10196000800191421CD1226A00F03F01914217D1BF
:1019700047F6C071626A0140B1EB821F10D1A26AC2
:101980004FF0FF3300F4403103EB5202B1EB024F52
:1019900006D194F82C1000F07060B0EB016F01D00C
:1019A0000120D1E70020CFE7043802400000474281
:1019B000800E4742007000400000FFFF10B5401E3F
:1019C000B0F1807F01D3012010BD4FF0E0246061B1
:1019D0000F21601700F011FD0020A0610720206199
:1019E000002010BD70477047F8B5016804460868CC
:1019F000CA684B6910F00F0F4FF0000559D003F083
:101A0000010602F49077374365D0C10705D0D105B0
:101A100003D5216C41F001012164410705D5D907A7
:101A200003D0216C41F002012164810705D5D9075B
:101A300003D0216C41F004012164010707D502F0B5
:101A40002001314303D0216C41F008012164216C55
:101A500000293AD0800604D5900602D5204600F031
:101A6000C2FB20684069216CC0F38010090700D4D4
:101A700060B3204600F090FB20684069400621D505
:101A80002068143050E8001F21F0400140E80012A7
:101A9000002AF5D1A06BA8B16C490165A06BFFF7D6
:101AA000CDF9002811D0A06B016D01B0BDE8F04068
:101AB000084783060FD593060DD52046BDE8F840AC
:101AC00000F091BB2046FFF78EFFF8BD2046FFF7E0
:101AD0008AFF2564F8BD266B2023012E79D1C60626
:101AE00077D5D60675D508684868009048694006DD
:101AF00040D5A16B086840680004000CEAD0A28DB4
:101B00008242E7D9E085C869B0F5807F2DD0206892
:101B10000C3050E8001F21F4807140E80012002AC8
:101B2000F5D12068143050E8001F21F0010140E891
:101B30000012002AF5D12068143050E8001F21F06F
:101B4000400140E80012002AF5D184F83E302563B8
:101B500020680C3050E8001F21F0100140E800120E
:101B6000002AF5D1A06BFFF720F9A08DE18D401A76
:101B700081B229E0A08DE18D401A81B2E08D00286C
:101B8000A8D00029A6D020680C3050E8002F22F4FD
:101B9000907240E80026002EF5D12068143050E8FD
:101BA000002F22F0010240E80026002EF5D184F833
:101BB0003E30256320680C3050E8002F22F01002E0
:101BC00040E80023002BF5D12046FFF70BFFF8BDBE
:101BD000FFE705062BD5150629D594F83D002128E9
:101BE000F5D1A068B0F5805F01D12069B0B1206A5D
:101BF000411C2162216800784860E08C401E00048E
:101C0000000CE084E3D12068C16821F08001C1604C
:101C10002068C16841F04001C160D8E7206A0088AF
:101C2000C0F308004860206A801C2062E5E7400697
:101C3000CDD55006CBD5CA68204622F04002CA60F6
:101C400084F83D3000F02CF9C1E70000892100083C
:101C500070B5040004D094F83D00002510B106E0F2
:101C6000012070BD84F83C50204600F023F8242069
:101C700084F83D002068C16821F40051C16020460D
:101C800000F012FB2068016921F490410161206895
:101C9000416921F02A0141612068C16841F4005185
:101CA000C1602564202084F83D0084F83E000020B7
:101CB00070BD00002DE9F04786B004461421684647
:101CC000FEF75BFBDFF868C126685A480221032251
:101CD000082300254FF0400A4FF020674FF4806939
:101CE00066454DD1534E1036D6F800C04CF0804CAE
:101CF000C6F800C0366806F080460596066846F0CD
:101D000010060660006800F010000590D0018DE814
:101D1000230069464848CDE90323FFF7EDF9484E13
:101D20004648C8463060C6E90175C6E90359756181
:101D3000B561F561356230467562FFF761F908B14A
:101D4000FEF7EFFBA663B4633D4E3C486036303887
:101D5000C6E903587561B561F5613562756286E85B
:101D600081043046FFF74CF908B1FEF7DAFB6663F1
:101D7000002211465220B463FFF74CFB522052E080
:101D8000DFF8C0C0664550D12A4E1436D6F800C0E0
:101D90004CF0200CC6F800C0366806F02006059608
:101DA000066846F040060660006800F040000590B6
:101DB0004FF484408DE8230069462348CDE903238E
:101DC000FFF79AF91E4E2148C036B8463060C6E982
:101DD0000175C6E903597561B561F56135624F4614
:101DE00030467562FFF70CF908B1FEF79AFBA6635F
:101DF000B463174E1548C6E903577561B561F561BF
:101E000035627830756286E801053046FFF7F8F8EC
:101E100008B1FEF786FB6663002211464720B463D3
:101E2000FFF7F8FA4720FFF7E7FA06B0BDE8F087BA
:101E300000780040303802400010024058600240F4
:101E400020010020001401400018024028640240D4
:101E50004002002090F83E30202B0ED159B152B1F3
:101E600090F83C30012B08D0012380F83C3000234F
:101E7000036300F09FBA0120704702207047000002
:101E8000054810B5007800F079FDBDE8104001224A
:101E900001490248FFF7DEBF04000020DC000020FB
:101EA0007047FEE70F4810B50D49016003214160FE
:101EB00000214FF4A0228160C0E903124FF4C00258
:101EC0004261017641768176C17601774177FEF7EE
:101ED000A4FD002803D0BDE81040FEF722BB10BDD2
:101EE00000640040180000200F4810B50D49016043
:101EF0000321416000214FF4A0228160C0E9031258
:101F00004FF4C0024261017641768176C176017755
:101F10004177FEF782FD002803D0BDE81040FEF7B0
:101F200000BB10BD0068004040000020194808B503
:101F3000016841F480010160016801F480010091B1
:101F4000016841F4001101600068002200F40010F3
:101F5000009011460C20FFF75DFA0C20FFF74CFAB9
:101F6000002211460E20FFF755FA0E20FFF744FA23
:101F7000002211463920FFF74DFA3920FFF73CFACD
:101F8000002211464520FFF745FABDE808404520EC
:101F9000FFF732BA303802402DE9F04186B0142103
:101FA0006846FEF7EAF92A480024016841F040013A
:101FB0000160016801F040010591016841F00201F2
:101FC0000160016801F002010591016841F0010121
:101FD0000160016801F001010591016841F008010B
:101FE0000160016801F008010591016841F080017C
:101FF0000160016801F080010591016841F0100164
:1020000001600068134F00F01000059001223C2190
:102010003846FFF78BF9DFF84080FE140022314686
:102020004046FFF783F901253C20CDE90005CDE9C5
:10203000025469463846FFF75FF80096CDE901542F
:10204000694640460394FFF757F806B0BDE8F081B3
:1020500030380240001C0240001002400C4810B50D
:102060000A4901604FF4E1314160002181600C2296
:10207000C160C0E904128161C161FFF7E9FD002878
:1020800003D0BDE81040FEF74CBA10BD0078004008
:10209000980000200C4810B50A4901604FF4E13166
:1020A0004160002181600C22C160C0E9041281619D
:1020B000C161FFF7CDFD002803D0BDE81040FEF759
:1020C00030BA10BD00140140DC000020FEE7FEE73E
:1020D00070477047FFF736B930B593B03021684686
:1020E000FEF74BF914210CA8FEF747F91D4800250F
:1020F000016841F080510160006800F0805011904B
:102100001948016841F4404101600068022400F46C
:102110004040119001200090000401908001CDE921
:10212000064006200890A820CDE9090404200B9061
:102130006846FFF78DFA08B172B6FEE70CA90F20CA
:1021400081E831004FF4A0500F904FF48050109070
:1021500005210CA8FFF790F9002801D072B6FEE720
:1021600013B030BD403802400070004002480168A2
:1021700041F470010160704788ED00E00148FFF70D
:1021800033BC00009800002010B5806B0021C18591
:10219000C184FFF728FC10BD01680C3151E8002F05
:1021A00022F4907241E80023002BF5D1016814312C
:1021B00051E8002F22F0010241E80023002BF5D165
:1021C000016B012909D101680C3151E8002F22F07F
:1021D000100241E80023002BF5D1202180F83E10A9
:1021E00000210163704708B590F83E10222901D004
:1021F000022008BD82684FF480539A4201D10169E0
:1022000021B1816A9A421BD04AB10AE00268816A10
:102210005268C2F308020A80816A891C08E00269D8
:1022200072B10268526802F07F020A70816A491C2A
:102230008162C18D491E0904090CC18503D019E0D2
:1022400002685268F1E70168CA6822F02002CA6099
:102250000168CA6822F48072CA6001684A6922F083
:1022600001024A61202180F83E10016B012903D050
:10227000FFF706FE002008BD0021016301680C3154
:1022800051E8002F22F0100241E80023002BF5D185
:1022900001680A68D20602D50A6849680091818DF2
:1022A000FFF7A0FBE6E7000070B50446006801698F
:1022B000E26821F44051114301612169A068E2699B
:1022C00008436169114308432168CA6849F20C63F5
:1022D0009A430243CA6020684169A26921F44071AF
:1022E0001143416131492068884202D03049884217
:1022F00002D1FFF76BF901E0FFF758F9E26900231B
:10230000192164253226B2F5004F626828D0A0FB5F
:102310000101930F9200FDF7B9FF0146B0FBF5F004
:102320006FF01802504301EB800006EB0010B0FB89
:10233000F5F000F0F002B1FBF5F002EB0012B1FB9A
:10234000F5F06FF01803584301EB800006EB001026
:10235000B0FBF5F000F00F0021681044886070BDFC
:10236000A0FB010192185B41FDF790FF0146B0FB15
:10237000F5F00201B1FBF5F06FF01803584301EBE3
:10238000800006EBC000B0FBF5F000F0F80002EBB7
:102390004002B1FBF5F0584301EB800006EBC000B2
:1023A000B0FBF5F000F00700D6E700000010014098
:1023B0000014014081628285C285002101642222CD
:1023C00080F83E2080F83C100168CA6842F48072B0
:1023D000CA6001684A6942F001024A610068C16846
:1023E00041F02001C1600020704700000148FFF764
:1023F000FBBA0000DC000020FEE70907090E0028F8
:1024000004DB00F1E02080F80014704700F00F00BA
:1024100000F1E02080F8141D704710B502884FF4D9
:10242000FA6341F630019A4205D804898C4202D3FE
:102430004168491C06E08A4205D30189994202D8C5
:102440004168491E416010BD00B58BB000200121DC
:1024500003900490CDE90601CDE9081005900090A5
:102460000190029069460648FEF7DEF80448FEF740
:1024700069FC03210248FEF756F80BB000BD0000CE
:102480001800002008B5084B0A46074918600020CC
:1024900058609860D860082018616B46A1F1500020
:1024A000FEF753F808BD00006800002000B58BB0AF
:1024B0000020012103900490CDE90601CDE9081028
:1024C000059000900190029069460648FEF7ACF82E
:1024D0000448FEF737FC03210248FEF724F80BB04E
:1024E00000BD00004000002008B5084B0A4607491F
:1024F0001860002058609860D860082018616B460A
:10250000A1F14000FEF721F808BD00008000002086
:1025100010B591ED290A0C46D1ED270AB8EEC00A94
:10252000084600F011F9BDEEC00A10EE100A00B224
:10253000A4F8A800B4F9A01000EE101AF8EEC00A32
:1025400000EE100A04F13400B8EEC00A00F0FCF806
:10255000BDEEC00A42F2107110EE100A00B2A4F8EB
:10256000AC00884200DD08460449A4F8AC0088426B
:1025700000DA0846A4F8AC0010BD0000F0D8FFFF58
:1025800070B50646088808813088154640BA08802C
:102590000C460846FFF741FF208894ED010A00EE43
:1025A000900A9FED0B1AB8EEC00AF8EE600A00EE32
:1025B000810ADFED080A20EE200A85ED270A7088DF
:1025C00040BAA5F8A000B08840BAA5F8A20070BD36
:1025D0000000003900007A4410B54968002336290C
:1025E00001DB047834B1002903DC0178012900D132
:1025F000037010BD01210170C2F8A43010BD0000AD
:10260000FEF7A8FEFFF768FDFFF7C6FCFFF74AFCE0
:10261000FFF76AFCFFF78AFCFFF73CFDFFF71EFDA2
:10262000FFF712FFFFF742FF00F0F8F8012212490E
:102630001248FFF70FFC124FDFF84880DFF8489090
:102640005FF0000404EB440000EBC40007EB00164D
:1026500004EB440108EB810509EB040032462946EE
:10266000FFF7BAFF31462846FFF752FF641C092CDA
:10267000E8DB00F00BF8E3E704000020DC000020BA
:10268000A0020020D00800206409002030B585B0E9
:1026900000202C4C00900190049002900390B4F81C
:1026A000AC004FF40075010A8DF800108DF80100A0
:1026B000B4F85C01010A8DF802108DF80300B4F83B
:1026C0000C02010A8DF804108DF80500B4F8BC0264
:1026D000010A8DF806108DF8070069462846FFF7B5
:1026E000D1FEB4F86C13080A8DF810008DF81110A3
:1026F000B4F81C14080A8DF812008DF8131004A900
:10270000681EFFF7BFFEB4F8CC04010A8DF808106C
:102710008DF80900B4F87C05010A8DF80A108DF8CF
:102720000B00B4F82C06010A8DF80C108DF80D0082
:1027300002A92846FFF7D8FE0120FEF7CBFC05B022
:1027400030BD0000A002002030EE600A80ED070AD4
:1027500080ED090AD0ED0A0A30EE801A80ED0A1ADF
:10276000D0ED060AF5EEC00AF1EE10FA0DD0B4EE87
:10277000E01AF1EE10FA06DCF1EE600AB4EEE01AAF
:10278000F1EE10FA01D2C0ED0A0AD0ED050AF5EE1D
:10279000C00AF1EE10FA11D0B0EE401AB4EEE01A11
:1027A000F1EE10FA08DCB0EE401AF1EE600AB4EE79
:1027B000E01AF1EE10FA01D2C0ED090A10EE101A7B
:1027C000104A914203DADFED100AC0ED0A0AD0ED9B
:1027D000080A70EE600AC0ED0B0A80ED080A90ED61
:1027E000000A90ED091AD0ED0A1A20EE010A90EDC8
:1027F000011A01EE210A90ED021A01EE200A80ED85
:102800000C0A70470000A04000000000C0ED051A4F
:1028100080ED062A80EC030A7047000030B50025E1
:10282000DFED504A504AB1EE0C4AF7EE003A9FED08
:102830004F3ADFED4F2A4F4B02F11401F0EE621ACE
:10284000B0EE630AF0EE640AB0EE431A05EB450001
:1028500082EC040A00EBC50003EB0014C2ED041A7D
:102860002046B0EE612AFFF7D1FFF0EE430A81ED7A
:10287000004AC1ED010AF0EE621AC1ED020AC1ED93
:10288000031AB0EE440AB0EE601AC1ED041A04F166
:102890003400B0EE612AFFF7B9FFED1C092DCDDB46
:1028A00001259FED354A00BFC2ED032A05EB450027
:1028B000C2ED042A00EBC500B0EE630AF0EE430A55
:1028C000B0EE431A03EB00142046B0EE622AF0EE9D
:1028D000621A82EC030AFFF799FFC1ED032AC1EDEA
:1028E000042AB0EE630AF0EE440AB0EE431A04F193
:1028F0003400B0EE622AF0EE621A81EC030AFFF7B0
:1029000085FFED1C092DCFDB5FF00204F0EE621AAB
:10291000B0EE630AF0EE430AB0EE431A04EB440053
:1029200082EC040A00EBC40003EB0010C2ED041AB1
:10293000B0EE612A0546FFF769FFB0EE630AF0EEDC
:10294000440AB0EE431AF0EE621AB0EE622A05F1C4
:10295000340081EC050AFFF759FFE41C092CD5DB94
:1029600030BD0000CDCC4C3D3C09002000000000F3
:10297000003C1C46A0020020CDCCCC3D12490228D0
:1029800009D0032806D10020C1F8A400C1F8B40280
:10299000C1F8C40470474FF47A604242C1F8A40001
:1029A000C1F8B422C1F8C4044DF2F020C1F85401BA
:1029B000C1F86403C1F87405C1F80402C1F8140435
:1029C000C1F8240670470000A00200204FF04070BC
:1029D000E1EE100A704700061016000610160000FF
:1029E00000000000000001020304060708090000BF
:1029F0000000010203040000182A00080000002063
:102A000018000000E8010008302A00081800002023
:102A1000B80F0000040200080000000000000000E1
:102A20000100000010000000000000000024F4007D
:04000005080001AD41
:00000001FF
