:020000040800F2
:10000000584E00200D030008B32000089F1E000872
:10001000B120000883050008D52400080000000076
:100020000000000000000000000000004D02000879
:10003000B505000800000000A9020008B52000086E
:1000400027030008270300082703000827030008E8
:1000500027030008270300082703000827030008D8
:1000600027030008270300082703000827030008C8
:1000700027030008270300082703000827030008B8
:10008000270300082703000827030008910500083C
:100090008505000827030008270300082703000838
:1000A0002703000827030008270300082703000888
:1000B0002703000827030008270300082703000878
:1000C0002703000827030008270300082703000868
:1000D0002703000827030008270300082703000858
:1000E0002703000827030008270300082703000848
:1000F0002703000827030008270300082703000838
:100100002703000827030008270300082703000827
:10011000270300082703000885210008270300089B
:100120002703000827030008270300082703000807
:10013000270300082703000827030008A905000873
:100140009D0500082703000827030008270300086F
:10015000270300082703000827030008C924000814
:1001600027030008270300082703000827030008C7
:1001700027030008270300082703000800000000E9
:100180002703000827030008592200082703000856
:100190002703000827030008270300082703000897
:1001A00000000000000000002703000800F002F833
:1001B00000F03CF80AA090E8000C82448344AAF1C5
:1001C0000107DA4501D100F031F8AFF2090EBAE8C3
:1001D0000F0013F0010F18BFFB1A43F0010318477B
:1001E000F050000010510000103A24BF78C878C1C8
:1001F000FAD8520724BF30C830C144BF04680C602D
:10020000704700000023002400250026103A28BF74
:1002100078C1FBD8520728BF30C148BF0B60704778
:100220001FB504F0AEFB1FBD10B510BD00F074F992
:100230001146FFF7F5FF02F0FDFE00F092F903B45E
:10024000FFF7F2FF03BC00F095F900002C4B196892
:100250000868B0E8F04F80F30988BFF36F8F4FF064
:10026000000080F311887047000000000848006813
:10027000006880F308884FF0000080F3148862B6AD
:1002800061B6BFF34F8FBFF36F8F00DF00BF00BFBA
:1002900008ED00E0DFF80C00016841F47001016036
:1002A000704700BF88ED00E0EFF30980BFF36F8F68
:1002B000134B1A681EF0100F08BF20ED108A20E9BA
:1002C000F04F106009B44FF0500080F31188BFF375
:1002D0004F8FBFF36F8F03F08FFC4FF0000080F360
:1002E000118809BC19680868B0E8F04F1EF0100FBB
:1002F00008BFB0EC108A80F30988BFF36F8F704796
:1003000038000020EFF3058070470000094880475F
:1003100009480047FEE7FEE7FEE7FEE7FEE7FEE7E7
:10032000FEE7FEE7FEE7FEE704480549054A064BFF
:100330007047000075210008AD01000858480020F2
:10034000584E0020584A0020584A002053EA020C18
:1003500000F069802DE9F04B4FF00006002B1FBF25
:10036000B3FA83F503FA05F424FA05F65E4012BFEA
:100370001643B2FA82F502FA05F4C5F120051EBF54
:1003800022FA05FC44EA0C04203556EA044C4FEAF4
:10039000144418BF641C4FF000084FF0000990424D
:1003A00071EB030C39D3002919BFB1FA81F701FAB7
:1003B00007F6B0FA80F700FA07F6C7F120071EBF6C
:1003C00020FA07FC46EA0C062037B6FBF4FCA7EB44
:1003D0000507103F07F01F0BCBF120060CFA0BFBB3
:1003E0002CFA06F644BFB3460026202FA4BF5E4673
:1003F0004FF0000B5BEA060C08BF4FF0010B19EB46
:100400000B09ABFB027C48EB0608C01B06FB02CCC9
:100410000BFB03CC71EB0C01C1E70B4602464146D6
:100420004846BDE8F08B13B54FF000004FF00001D7
:10043000AFF30080BDE81C40704710B5203AC0F013
:100440000B80B1E81850203AA0E81850B1E81850D5
:10045000A0E81850BFF4F5AF5FEA027C24BFB1E812
:100460001850A0E8185044BF18C918C0BDE8104083
:100470005FEA827C24BF51F8043B40F8043B08BF8C
:100480007047D20728BF31F8023B48BF11F8012B53
:1004900028BF20F8023B48BF00F8012B70474FF0FF
:1004A000000200B5134694469646203922BFA0E8C4
:1004B0000C50A0E80C50B1F12001BFF4F7AF0907D0
:1004C00028BFA0E80C5048BF0CC05DF804EB8900C1
:1004D00028BF40F8042B08BF704748BF20F8022B04
:1004E00011F0804F18BF00F8012B7047704770471C
:1004F000704710B500F008F8006810BD10B504464C
:1005000000F002F8046010BD00487047F847002072
:1005100000487047F84700207546FFF7F9FFAE46E0
:1005200005006946534620F00700854618B020B5FF
:10053000FFF7FAFEBDE820404FF000064FF000073D
:100540004FF000084FF0000B21F00701AC46ACE87B
:10055000C009ACE8C009ACE8C009ACE8C0098D46E8
:10056000704710B50446AFF300802046BDE8104048
:10057000FFF765BE01491820ABBEFEE7260002006A
:100580007047FEE7014800F094B90000F402002033
:10059000014800F08EB90000F4020020014800F08C
:1005A00088B900001C030020014800F082B9000057
:1005B0001C030020704772B6FEE790F82020012A45
:1005C00007D0022A05D0416A41F48021416201200E
:1005D0007047006842690A43426100207047F0B5E5
:1005E00090F820500468A468012D05D0022D03D096
:1005F000416A41F480215DE014F0406F01D1E500D3
:1006000055D5C4F30164022C03D9416A41F40001B9
:1006100050E00125A5401D608D684FF4C0739DB169
:10062000CE6835434E6845EAC605066803EB0417F5
:10063000F5514FF4C275076805EB04150E697E513C
:10064000097D012905D009E00E88CD6845EA4655A7
:10065000EBE701684E5946F480764E511179D57911
:10066000567941EA056195792D0445EA0625294325
:100670004FF4C676056806EB0416A9511178D578B3
:1006800041EA0561957852782D0445EA022211432A
:100690004FF4C475026805EB04155151006803EB73
:1006A0000411425842F0010242500020F0BD416A5C
:1006B00041F4001141620120F0BD000010B590F836
:1006C0002020012A07D0022A05D0416A41F4802166
:1006D0004162012010BD3B48D0F8002242F00102E7
:1006E000C0F80022D0F8002222F47C52C0F8002288
:1006F000D0F800224B6A42EA0322C0F800220A7DA9
:1007000002F01F0301229A40D0F81C329343C0F834
:100710001C32CB69B3B9D0F80C329343C0F80C3219
:100720008C894B6864F31F434C6900EBC404C4F824
:1007300040320C890B6864F31F434C6900EBC4041E
:10074000C4F84432CB69012B16D1D0F80C321343D4
:10075000C0F80C320C884B6864F31F434C6900EB03
:10076000C404C4F840320C89CB6864F31F434C695D
:1007700000EBC404C4F844328B69002BD0F8043277
:100780000ED01343C0F804320B69002BD0F814329A
:1007900008D01343C0F81432096A012904D008E0D4
:1007A0009343EFE79343F5E7D0F81C121143C0F8E9
:1007B0001C12D0F8001221F00101C0F80012002034
:1007C00010BD000000640040704730B590F8204034
:1007D000012C05D0022C03D0416A41F480215DE058
:1007E0000468002955D02469A40754D04FF4D87464
:1007F000056804EB01142D5915F004059560056892
:100800002D594ED0ED08556005682C5904F00204AE
:10081000D4604FF4DA74056804EB01142D5905F027
:100820000F05156105682D59C5F307259561056804
:100830002C59240C54614FF4DC72046802EB011251
:10084000A4581C700468A458240A5C700468A45856
:10085000240C9C700468A258120EDA704FF4DE72F9
:10086000046802EB0112A4581C710468A458240AFD
:100870005C710468A458240C9C710468A258120E80
:10088000DA71006881B1016941F020010161002045
:1008900030BDE468A8E7416A41F4001141620120DB
:1008A00030BD6D0D1560AFE7C16841F02001C1603A
:1008B000EDE72DE9F05F0546006800244669D0F8B1
:1008C00004908768D0F80CB0D0F810A0D0F8188049
:1008D000F10748D0F90714D001218160B80703D58A
:1008E000284600F0A6FA0CE0780702D54FF4006421
:1008F00007E0380702D54FF4805402E0284600F0A4
:1009000097FAF80516D529684FF480708860B80505
:1009100003D5284600F08FFA0CE0780502D544F4A0
:10092000005407E0380502D544F4804402E028462C
:1009300000F080FAF80316D529684FF480308860FB
:10094000B80303D5284600F078FA0CE0780302D506
:1009500044F4004407E0380302D544F4803402E054
:10096000284600F069FA300707D55FEACB6004D566
:100970002968102044F40074C86070074FF008071D
:1009800007D55FEA0B7004D52868C760284600F0D9
:10099000A9F9B00706D52868C068800702D02846A4
:1009A00000F0A2F9700607D55FEACA6004D529688D
:1009B000102044F480640861B00607D55FEA0A702D
:1009C00004D528680761284600F002FAF00606D52B
:1009D00028680069800702D0284600F0FAF9B003C1
:1009E00008D55FEAC96005D5296810204860284607
:1009F00000F0F0F9F00307D55FEA097004D5286824
:100A00004760284600F01AFA300446D55FEA49707C
:100A100040D5F00504D55FEAC87001D044F0010468
:100A2000B00504D55FEA887001D544F00204700572
:100A300004D55FEA487001D544F00404300529D597
:100A400018F0700F26D008F07000402815D006DC92
:100A5000102809D020280AD0302816D10AE05028C2
:100A60000ED0602811D10EE044F008040DE044F0EF
:100A700010040AE044F0200407E044F0400404E0DD
:100A800044F0800401E044F480742868816921F016
:100A900070018161296804204860002C05D0686AD3
:100AA000204368622846FFF78FFEBDE8F09F70B5CF
:100AB000040003D094F8200010B104E0012070BDC0
:100AC000204600F081F82068016841F001010160D2
:100AD00000F042FB0546052604E000F03DFB401B0C
:100AE0000A2811D820684068C007F6D0206801683D
:100AF00021F00201016000F02FFB05460BE000F041
:100B00002BFB401B0A2806D9606A40F40030606263
:100B100084F82060D2E7206840688007EFD4207E08
:100B20000128206801683DD021F080010160607ECD
:100B300001282068016838D021F040010160A07EC2
:100B400001282068016833D021F020010160E07E97
:100B50000128206801682ED041F010010160207F3B
:100B600001282068016829D021F008010160607F18
:100B700001282068016824D021F004010160D4E933
:100B800002010843D4E90412114308436168491E75
:100B900008432168C86100206062012084F82000B9
:100BA000002070BD41F08001C0E741F04001C5E781
:100BB00041F02001CAE721F01001CFE741F0080120
:100BC000D4E741F00401D9E7F0B587B00446142119
:100BD0006846FFF764FC3E4B3E48DFF8F0E01968DA
:100BE000D4F800C03B4A0325022609271030002410
:100BF000491CF4452AD11960012907D1016841F047
:100C000000710160006800F000700590106840F00D
:100C1000080010601068CDE9005600F00800CDE92A
:100C2000047069462C48CDE9024500F075F90022B0
:100C30000521132000F01CFB132000F00BFB002209
:100C40000521142000F014FB14203BE0DFF88CE0B9
:100C5000F44539D1D0F800C04CF0806CC0F800C029
:100C6000D0F800C001290CF0806CCDF814C01960D8
:100C700007D1016841F000710160006800F0007068
:100C80000590106840F002001060106802AB00F0A0
:100C9000020005904FF44050CDE9000683E8B00013
:100CA00069460F4800F038F9002205213F2000F086
:100CB000DFFA3F2000F0CEFA00220521402000F0AC
:100CC000D7FA402000F0C6FA07B0F0BD006400403B
:100CD0001800002030380240000C0240006800403C
:100CE000000402407047000010B58AB0044600209E
:100CF000079008902D492068884230D107AB6A469A
:100D000000212B48FFF761FD0098A0F20120062882
:100D100025D2DFE800F003070D12181D254A2649E9
:100D200007A81AE0234A2449B0320C3107A814E07E
:100D30002149224A183107A80FE0204A1E49B03243
:100D4000243107A809E01C491D4A303107A804E0F6
:100D50001B4A1949B0323C3107A802F033F919494E
:100D60002068884220D1124807AB6A46002128300B
:100D7000FFF72BFD0098A0F50070013808D001287E
:100D80000BD0022810D10C490F4A603107A809E0A6
:100D900009490E4A483107A804E00B4A0649B03A0F
:100DA000543107A802F00EF90AB010BD00640040EB
:100DB000F402002044040020740A0020A40500204E
:100DC0000407002000680040C409002064080020D7
:100DD000704770477047000070B5044690F82000D7
:100DE000012804D0606A40F40020606218E002200C
:100DF00084F820002068016821F00101016000F002
:100E0000ABF905460EE000BF00F0A6F9401B0A282A
:100E100008D9606A40F400306062052084F8200040
:100E2000012070BD20684068C007EDD1606270BDD0
:100E300070477047704770477047704770472DE99B
:100E4000F0410446876D00F087F9064694F83500B6
:100E50000025022806D08020606584F834500120E7
:100E6000BDE8F0812068016821F01601016020686A
:100E7000416921F080014161206C08B9A06C20B16A
:100E80002068016821F0080101602068016821F0F4
:100E9000010101600CE000F05FF9801B052807D913
:100EA00020206065032084F8350084F83450D7E7AB
:100EB00020680068C007EED194F85C103F2088409D
:100EC000B860012084F8350084F834500020C7E76A
:100ED00090F83510022903D0802141650120704728
:100EE000052180F835100068016821F001010160DA
:100EF0000020704770B5044600F02EF90546601CCE
:100F000002D004480078044400F026F9401BA042B7
:100F1000FAD370BD200000202DE9F84FDFF8F8A1CA
:100F2000002201240AF1040B03254FF00F090BF1F5
:100F3000040E00BF0B6804FA02F63340B34270D1CE
:100F40000F7907F00307012F01D0022F16D1876810
:100F50004FEA420805FA08FC27EA0C07D1F80CC052
:100F60000CFA08FC4CEA070CC0F808C04768B74305
:100F70000E79C6F3001696403E4346600E79F6435E
:100F8000B6070AD0C7684FEA420C05FA0CF6B74319
:100F90008E6806FA0CF63E43C6600E7906F003062C
:100FA000022E10D1D60800EB8608D8F8206057072B
:100FB0004FEAD76C09FA0CF7BE430F6907FA0CF732
:100FC0003743C8F8207006684FEA420C05FA0CF760
:100FD000BE430F7907F0030707FA0CF737430760A2
:100FE0004E6816F4403F1CD04C4E376847F480479B
:100FF0003760366822F0030706F480460096484EB4
:1010000007EB060CDCF8086897073F0F09FA07F8AA
:1010100026EA0806DFF80C81404503D14FF00008AE
:1010200041E072E0DFF80081404502D14FF0010855
:1010300039E0DFF8F880404502D14FF0020832E095
:10104000DFF8EC80404502D14FF003082BE0DFF8D9
:10105000E480404502D14FF0040824E0DFF8D88056
:10106000404502D14FF005081DE0DFF8D080404533
:1010700002D14FF0060816E0DFF8C480404502D1E7
:101080004FF007080FE0DFF8BC80404502D14FF079
:10109000080808E0DFF8B080404502D14FF00908A9
:1010A00001E04FF00A0808FA07F848EA0608CCF809
:1010B0000888DAF800605746D1F804C09E435FEA1A
:1010C000CC3C00D51E433E60DBF800605F46D1F8A3
:1010D00004C09E435FEA8C3C00D51E433E60DEF8B0
:1010E00000607746D1F804C09E435FEACC2C00D55F
:1010F0001E433E60084F0C373E68D1F804C09E4343
:101100005FEA8C2C00D51E433E60521C102AFFF46F
:1011100011AFBDE8F88F0000003C014044380240A8
:10112000003001400000024000040240000802407C
:10113000000C02400010024000140240001802405F
:10114000001C024000200240002402400AB18161DC
:1011500070470904FBE70000014880687047000001
:1011600020000020024881680278114481607047A5
:10117000200000200B4810B5016841F400710160A7
:10118000016841F480610160016841F4807101608F
:10119000032000F08DF80F2000F006F800F03EF874
:1011A000002010BD003C024010B5014688B000226E
:1011B000362000F05DF8362000F04CF8134800248B
:1011C000016841F010010160006805A900F01000FD
:1011D0000690684600F018F900F036F90C49400016
:1011E000B0FBF1F10C480B4A491E026040F2E732B5
:1011F000C0E90324C0E9011400F030FB10B1012064
:1012000008B010BD044800F057FBF9E74038024031
:1012100040420F0000100040FC0300200C4882B048
:10122000016841F480410160006800F48040009052
:101230000748001F016841F08051016000680022EA
:1012400000F0805000900F21901E02B000F010B806
:1012500044380240002809DB00F01F0201219140C0
:101260004009800000F1E020C0F800117047000044
:10127000F0B40E4B1B680C46C3F30223C3F1070501
:10128000042D00D90425191D072901D2002300E0EF
:10129000DB1E012606FA05F1491E214099409E40B9
:1012A000761E16403143F0BC01F02DB90CED00E084
:1012B000064900F0070208684FF6FF03184040EAAD
:1012C0000220034A10430860704700000CED00E064
:1012D0000000FA052DE9F0470E46050065D0DFF85D
:1012E0001481D8F80000F7B200F00F00B04207D226
:1012F00088F80070D8F8000000F00F00B04254D118
:1013000028683D4C810712D5400703D5206840F47A
:10131000E05020602878000703D5206840F4604042
:1013200020602068A96820F0F00008432060287839
:10133000C0072DD0304968680839012812D002282A
:1013400013D0032811D00968890700292DDA2168F4
:1013500021F0030101432160FFF7FEFE814641F2C7
:10136000883A0EE009688903EFE709688901ECE72C
:10137000FFF7F2FEA0EB0901514502D90320BDE8B9
:10138000F0872068696800F00C00B0EB810FEFD1A6
:10139000D8F80010404601F00F01B14207D907709C
:1013A000006800F00F00B04201D00120E7E7287884
:1013B000400705D52068E96820F4E0500843206024
:1013C0002878000706D52068296920F4604040EAA3
:1013D000C100206000F058F82168084AC1F30311E9
:1013E000515CC8400649086006480068FFF7DCFE0B
:1013F0000020C4E7003C024008380240EC490008E5
:101400002C000020240000200F2202600C4A1368E8
:1014100003F003034360136803F0F0038360136871
:1014200003F4E053C36012684FF4E05303EAD202BE
:1014300002610448006800F00F0008607047000077
:1014400008380240003C0240044805490068096829
:10145000044AC1F38221515CC84070472C0000202F
:1014600008380240FC49000804480549006809683A
:10147000044AC1F34231515CC84070472C0000203F
:1014800008380240FC490008154810B5006810F003
:101490000C02144813D01449042A0FD0082A0ED184
:1014A0000F4C241F2268236802F03F025B0207D51D
:1014B0002068C0F38810A0FB010106E0084610BDBB
:1014C0002168C1F38811A1FB00010023FEF73EFF54
:1014D0002168C1F30141491C4900B0FBF1F010BD86
:1014E000083802400024F400001BB7002DE9F84F33
:1014F00004006ED02078DFF84C93C007A9F10405F2
:101500004AD009F104000168C1F38101012908D022
:101510000068C0F3810002280AD1D9F80000400217
:1015200006D52868800337D560680028E1D033E00D
:101530006068B0F5803F10D0B0F5A02F286810D0BB
:1015400020F480302860286820F4802028606068BB
:10155000A8B1FFF701FE06460DE0286840F4803090
:10156000F4E740F480202860F7E700BFFFF7F4FDC0
:10157000801B642873D828688003F7D50CE0FFF738
:10158000EBFD064605E000BFFFF7E6FD801B642883
:10159000F0D828688003F7D42078DFF8AC82800781
:1015A0004FF0000A3ED5A748001D016811F00C0F4E
:1015B00008D00068C0F3810002280BD1D9F80000E0
:1015C000400207D42868800716D5E068012800D1BA
:1015D00012E033E1E068B8B10120C8F80000FFF77D
:1015E000BBFD064605E000BFFFF7B6FD801B0228E5
:1015F000C0D828688007F7D52868216920F0F8004E
:1016000040EAC10028600DE0C8F800A0FFF7A4FD83
:10161000064604E0FFF7A0FD801B02281FD82868BB
:101620008007F7D42078000722D5864F8748616964
:10163000703771B101210160FFF78EFD064604E0AD
:10164000FFF78AFD801B022809D838688007F7D584
:101650000EE0C0F800A0FFF77FFD064605E082E03F
:10166000FFF77AFD801B02287DD838688007F7D401
:101670002078400768D5DFF8CCB100270BF13C0B90
:10168000DBF80000C0000BD4DBF8001041F0805103
:10169000CBF80010DBF80000012700F0805000902C
:1016A0006B4E3068C00510D4306840F480703060F4
:1016B000FFF752FD009005E0FFF74EFD0099401A3C
:1016C000022850D83068C005F6D55E4EA0686C364A
:1016D00001280FD00528306810D020F001003060BC
:1016E000306820F004003060A068B8B1FFF734FD26
:1016F00000900FE0306840F00100F4E740F0040093
:101700003060F7E7FFF728FD0099411A41F2883071
:10171000814266D830688007F4D50EE0FFF71CFDE3
:10172000009007E0FFF718FD0099411A41F2883058
:10173000814256D830688007F4D42FB1DBF800100E
:1017400021F08051CBF80010A069C8B33D49091DB4
:101750000968C1F3810102294AD00228504607D006
:10176000C8F8600000E03CE0FFF7F6FC04463BE010
:101770004746C8F86000FFF7EFFC064605E000BFEB
:10178000FFF7EAFC801B02282BD828688001F7D4D9
:10179000D4E907010843A16A2E4A490802EB014136
:1017A000626A41EA8211084394F82C1040EA016110
:1017B000C9F8001001203866FFF7CEFC044606E0A9
:1017C0003EE000BFFFF7C8FC001B022809D82868CC
:1017D0008001F7D534E000BFFFF7BEFC001B0228F4
:1017E00002D90320BDE8F88F28688001F4D427E0EF
:1017F0000128F7D0D9F80000E26900F48001914295
:101800001CD1226A00F03F01914217D147F6C07106
:10181000626A0140B1EB821F10D1A26A4FF0FF3320
:1018200000F4403103EB5202B1EB024F06D194F8C1
:101830002C1000F07060B0EB016F01D00120D1E7F7
:101840000020CFE70438024000004742800E4742A4
:10185000007000400000FFFF7047704710B50400A3
:1018600003D094F83D0010B107E0012010BD002026
:1018700084F83C00204600F01EF8022084F83D0069
:10188000211D206800F084FC012084F8460084F8C3
:101890003E0084F83F0084F8400084F8410084F85A
:1018A000420084F8430084F8440084F8450084F83A
:1018B0003D00002010BD704790F83D10012901D077
:1018C00001207047022180F83D100168CA6842F08B
:1018D0000102CA6000681149884214D0B0F1804FFB
:1018E00011D00F4988420ED00E4988420BD00E49C4
:1018F000884208D00D49884205D00D49884202D05F
:101900000C49884204D1816801F00701062903D0FF
:10191000016841F0010101600020704700000140B2
:101920000004004000080040000C0040000401409A
:101930000040014000180040704770B50446006840
:1019400001694FF00005C943890715D4C168C9432F
:10195000890711D4E91E0161012020772068806980
:101960008007204602D0FFF7E7FF04E000F098F878
:10197000204600F096F8257720680169C943490799
:1019800017D4C168C943490713D46FF0040101613A
:10199000022020772068806910F4407F204602D022
:1019A000FFF7CAFF04E000F07BF8204600F079F86A
:1019B000257720680169C943090716D4C168C9435E
:1019C000090712D46FF00801016104202077206814
:1019D000C0698007204602D0FFF7AEFF04E000F0A8
:1019E0005FF8204600F05DF8257720680169C9435B
:1019F000C90617D4C168C943C90613D46FF01001D2
:101A00000161082020772068C06910F4407F2046DB
:101A100002D0FFF791FF04E000F042F8204600F00A
:101A200040F8257720680169C943C90708D1C16812
:101A3000C943C90704D1891E0161204600F032F86C
:101A400020680169C943090609D4C168C943090668
:101A500005D46FF0800101612046FFF7FDFE20688C
:101A60000169C943490609D4C168C943490605D477
:101A70006FF040010161204600F01EF82068016906
:101A8000C94389060BD4C168C943890607D46FF0DE
:101A9000200101612046BDE87040FFF7DEBE70BD49
:101AA0007047704700680349884201D1FFF75ABB6D
:101AB00070470000001000407047704770470000FA
:101AC000F8B5016804460868CA684B6910F00F0F42
:101AD0004FF0000559D003F0010602F49077374328
:101AE00065D0C10705D0D10503D5216C41F00101B6
:101AF0002164410705D5D90703D0216C41F00201CB
:101B00002164810705D5D90703D0216C41F0040178
:101B10002164010707D502F02001314303D0216C75
:101B200041F008012164216C00293AD0800604D5D7
:101B3000900602D5204600F0C4FB20684069216C65
:101B4000C0F38010090700D460B3204600F092FB78
:101B500020684069400621D52068143050E8001FF5
:101B600021F0400140E80012002AF5D1A06BA8B195
:101B70006C490165A06BFFF7ABF9002811D0A06B91
:101B8000016D01B0BDE8F040084783060FD593060C
:101B90000DD52046BDE8F84000F093BB2046FFF786
:101BA0008DFFF8BD2046FFF789FF2564F8BD266B41
:101BB0002023012E79D1C60677D5D60675D50868BB
:101BC000486800904869400640D5A16B08684068A5
:101BD0000004000CEAD0A28D8242E7D9E085C869F2
:101BE000B0F5807F2DD020680C3050E8001F21F424
:101BF000807140E80012002AF5D12068143050E8C6
:101C0000001F21F0010140E80012002AF5D12068F0
:101C1000143050E8001F21F0400140E80012002A73
:101C2000F5D184F83E30256320680C3050E8001F61
:101C300021F0100140E80012002AF5D1A06BFFF757
:101C4000FEF8A08DE18D401A81B229E0A08DE18DD2
:101C5000401A81B2E08D0028A8D00029A6D02068C3
:101C60000C3050E8002F22F4907240E80026002E3D
:101C7000F5D12068143050E8002F22F0010240E82E
:101C80000026002EF5D184F83E30256320680C3004
:101C900050E8002F22F0100240E80023002BF5D17D
:101CA0002046FFF70AFFF8BDFFE705062BD515060E
:101CB00029D594F83D002128F5D1A068B0F5805FC2
:101CC00001D12069B0B1206A411C216221680078ED
:101CD0004860E08C401E0004000CE084E3D12068E2
:101CE000C16821F08001C1602068C16841F04001F5
:101CF000C160D8E7206A0088C0F308004860206A05
:101D0000801C2062E5E74006CDD55006CBD5CA68D9
:101D1000204622F04002CA6084F83D3000F0BEF850
:101D2000C1E700006522000870B5040004D094F8F3
:101D30003D00002510B106E0012070BD84F83C5044
:101D4000204600F023F8242084F83D002068C16874
:101D500021F40051C160204600F014FB20680169A5
:101D600021F4904101612068416921F02A0141611B
:101D70002068C16841F40051C1602564202084F8C6
:101D80003D0084F83E00002070BD000070B586B0B4
:101D9000044614216846FEF782FB2B4E2268002180
:101DA0002A48022303240825B24222D1274A1032AE
:101DB000166846F080461660126802F0804205926E
:101DC000026842F010020260006802AA00F01000EF
:101DD000059082E83200E001CDE9000369461C4825
:101DE000FFF79AF8002205215220FFF741FA52200E
:101DF00025E0184EB24224D1144A1432166846F037
:101E000020061660126802F020020592026842F075
:101E100040020260006802AA00F04000059082E8DB
:101E200032004FF48440CDE9000369460A48FFF7C9
:101E300073F8002206214720FFF71AFA4720FFF720
:101E400009FA06B070BD000000780040303802404A
:101E500000100240001401400018024090F83E308B
:101E6000202B0ED159B152B190F83C30012B08D043
:101E7000012380F83C300023036300F009BB0120FC
:101E80007047022070470000012202490248FFF714
:101E9000E5BF00001C000020740300207047FEE72F
:101EA0000F4810B50D4901600321416000214FF436
:101EB000A0228160C0E903124FF4C00242610176A2
:101EC00041768176C17601774177FEF7F0FD0028F3
:101ED00003D0BDE81040FEF76EBB10BD00640040AB
:101EE000F40200200F4810B50D4901600321416044
:101EF00000214FF4A0228160C0E903124FF4C00218
:101F00004261017641768176C17601774177FEF7AD
:101F1000CEFD002803D0BDE81040FEF74CBB10BD3D
:101F2000006800401C03002010B596B01C22114927
:101F30006846FEF782FA0021684601F0AFF80E4CC1
:101F40000C491C22E0601C3107A8FEF776FA00213C
:101F500007A801F0A3F8074920611C2238310EA818
:101F6000FEF76BFA00210EA801F098F8606116B038
:101F700010BD000098490008000000202DE9F04144
:101F800086B014216846FEF78AFA2A4800240168C0
:101F900041F040010160016801F0400105910168D4
:101FA00041F002010160016801F002010591016840
:101FB00041F001010160016801F001010591016832
:101FC00041F008010160016801F008010591016814
:101FD00041F080010160016801F080010591016814
:101FE00041F0100101600068134F00F010000590EF
:101FF00001223C213846FFF7A9F8DFF84080FE14A3
:10200000002231464046FFF7A1F801253C20CDE9EA
:102010000005CDE9025469463846FEF77DFF00967B
:10202000CDE90154694640460394FEF775FF06B0BA
:10203000BDE8F08130380240001C02400010024030
:102040000C4810B50A4901604FF4E13141600021AC
:1020500081600C22C160C0E904128161C161FFF797
:1020600063FE002803D0BDE81040FEF7A4BA10BDFF
:1020700000780040740300200C4810B50A49016044
:102080004FF4E1314160002181600C22C160C0E960
:1020900004128161C161FFF747FE002803D0BDE84B
:1020A0001040FEF788BA10BD00140140B8030020AC
:1020B000FEE7FEE710B5502080F31188BFF34F8F85
:1020C000BFF36F8F01F098FE18B104494FF08050B4
:1020D0000860002080F3118810BD000004ED00E0CE
:1020E00030B593B030216846FEF7D9F914210CA819
:1020F000FEF7D5F91D480025016841F080510160C7
:10210000006800F0805011901948016841F4404186
:1021100001600068022400F440401190012000900A
:10212000000401908001CDE9064006200890A82017
:10213000CDE9090404200B906846FFF7D7F908B1F0
:1021400072B6FEE70CA90F2081E831004FF4A050D1
:102150000F904FF48050109005210CA8FFF7BAF8AB
:10216000002801D072B6FEE713B030BD40380240FF
:10217000007000400248016841F47001016070473E
:1021800088ED00E00148FFF7D8BB0000FC03002009
:10219000F0B50268254C264D264E274F274B4FF0B1
:1021A000804CA04209D0604507D0A84205D0B0427B
:1021B00003D0B84201D0984204D122F0700E4A6890
:1021C00042EA0E02A0421BD0604519D0A84217D0A7
:1021D000B04215D0B84213D0984211D0184DA84241
:1021E0000ED0184DA8420BD0174DA84208D0174D5D
:1021F000A84205D0164DA84202D0164DA84203D1E0
:1022000022F44075CA682A434D6922F080022A43AD
:1022100002608A68C2620A688262A04201D0984263
:1022200001D10969016301214161F0BD0000014054
:102230000004004000080040000C00400004014081
:1022400000400140004401400048014000180040A7
:10225000001C0040002000400148FFF731BC000096
:102260007403002010B5806B0021C185C184FFF785
:1022700025FC10BD01680C3151E8002F22F490724A
:1022800041E80023002BF5D10168143151E8002FFB
:1022900022F0010241E80023002BF5D1016B012956
:1022A00009D101680C3151E8002F22F0100241E8F9
:1022B0000023002BF5D1202180F83E10002101637E
:1022C000704708B590F83E10222901D0022008BDC1
:1022D00082684FF480539A4201D1016921B1816A29
:1022E0009A421BD04AB10AE00268816A5268C2F37E
:1022F00008020A80816A891C08E0026972B10268DA
:10230000526802F07F020A70816A491C8162C18DA5
:10231000491E0904090CC18503D019E002685268FE
:10232000F1E70168CA6822F02002CA600168CA6841
:1023300022F48072CA6001684A6922F001024A618F
:10234000202180F83E10016B012903D0FFF79CFD8E
:10235000002008BD0021016301680C3151E8002F05
:1023600022F0100241E80023002BF5D101680A6831
:10237000D20602D50A6849680091818DFFF79DFB5E
:10238000E6E7000070B5044600680169E26821F4E0
:102390004051114301612169A068E2690843616904
:1023A000114308432168CA6849F20C639A43024307
:1023B000CA6020684169A26921F4407111434161FA
:1023C00031492068884202D03049884202D1FFF763
:1023D0004BF801E0FFF738F8E26900231921642582
:1023E0003226B2F5004F626828D0A0FB0101930F9E
:1023F0009200FDF7ABFF0146B0FBF5F06FF018025D
:10240000504301EB800006EB0010B0FBF5F000F04C
:10241000F002B1FBF5F002EB0012B1FBF5F06FF04A
:102420001803584301EB800006EB0010B0FBF5F0F9
:1024300000F00F0021681044886070BDA0FB01010E
:1024400092185B41FDF782FF0146B0FBF5F00201F7
:10245000B1FBF5F06FF01803584301EB800006EB79
:10246000C000B0FBF5F000F0F80002EB4002B1FB59
:10247000F5F0584301EB800006EBC000B0FBF5F02F
:1024800000F00700D6E700000010014000140140F2
:1024900081628285C28500210164222280F83E206B
:1024A00080F83C100168CA6842F48072CA60016812
:1024B0004A6942F001024A610068C16841F02001A6
:1024C000C1600020704700000148FFF7F9BA000022
:1024D000B8030020FEE703B401984100009850EAD9
:1024E000C12018BF04204A0D18BF40F0010040F27F
:1024F000FF72B2EB515F08BF40F00200012808BF35
:10250000052002B070470907090E002804DB00F11E
:10251000E02080F80014704700F00F0000F1E02088
:1025200080F8141D7047000010B52F499FED2C1B3B
:102530002DED020B84B0059820F000408842DCBFEE
:1025400000209DED040B32DD2849884209D1049812
:1025500040B94FF00100FDF7D1FF00F03DFC06B09F
:1025600010BD05DB9DED040B00F02AFC06B010BD8C
:1025700068469DED040B00F03BF810F0030011D00D
:10258000012818D09DED021B9DED000B02281AD0EA
:1025900000F04AFA51EC100B01F0F6FC06B041ECE9
:1025A000100B10BD9DED021B9DED000B012000F0F6
:1025B0006FFB06B010BD9DED021B9DED000B00F002
:1025C00033FA06B010BD012000F062FB51EC100B95
:1025D00001F0DAFC06B041EC100B10BD0000000069
:1025E0000000000000000000FB21E93F0000F07F38
:1025F0002DE9F14F04462DED020B2DED088B8AB02D
:102600009FEDE70B80ED020B139EE74826F0004597
:1026100085420ADC9DED120B002084ED000B0AB010
:10262000BDEC088B03B0BDE8F08FE0489FEDE0AB58
:102630009FEDE1BBA84247DDE14F9FEDE39B9FED9E
:10264000E48B9DED120B53EC1A2B51EC100B002E6A
:102650001CDD02F03BF841EC100BBD4208D053ECFE
:102660001B2B51EC100B02F031F8C4E900010BE018
:1026700053EC192B51EC100B02F028F853EC182BEB
:1026800002F024F8C4E900010120C8E701F0BAFC17
:1026900041EC100BBD4208D053EC1B2B51EC100B3E
:1026A00001F0B0FCC4E900010BE053EC192B51EC34
:1026B000100B01F0A7FC53EC182B01F0A3FCC4E9AC
:1026C00000014FF0FF30AAE7C348A84279DB9DED37
:1026D000120B51EC100B00F0A1FC41EC180B9FED1C
:1026E000C00B53EC102B01F0E7FE9FEDBF1B53EC2A
:1026F000112B01F087FC01F085FE074601F0B1FEC9
:1027000041EC190B53EC1A2B01F0D6FE53EC182BAD
:1027100001F0D0FF41EC180B53EC1B2B51EC190BC3
:1027200001F0CAFEDFF8C8A241EC100B4FEA1558C1
:102730000125FA4453EC102B51EC180B01F0C6FFA5
:10274000032DC4E900013DD0C1F30A5005EB45114A
:10275000A8EB00001139814234DA0AEB051BB0EE18
:1027600048AA9BED000BF0EE68AA53EC102B51EC3D
:10277000190B01F0A1FE41EC1B0B51EC1A0B53ECB1
:102780001B2B01F0A3FF41EC180B51EC1A0B53EC7F
:10279000182B01F09BFF53EC1B2B01F097FF9BEDD7
:1027A000020B41EC1A0B53EC102B51EC190B01F0FE
:1027B00083FE53EC1A2B01F089FF41EC100B6D1CCA
:1027C000B8E70EE0002EA8BF3846BFF628AF94ED5C
:1027D000000B51EC100B01F0D7FBC4E9000178426B
:1027E0001DE7C6F3130040F4801EC6F30A50A0F2A2
:1027F000F530471100F01F05C5F12000DDF848B0A5
:1028000008900020069007900520EC467949002D9D
:1028100007EB0002794408BF51F8221009D051F8A3
:10282000223001EB8201AB404A68089922FA01F19B
:102830001943A1FB0E26A1FB0B131A449A4234BF85
:102840000123002303EB06080CEB8003D3E901A668
:102850000E448E4234BF0121002192448A4411B1BA
:10286000924502D903E0924501D2012100E0002106
:10287000C3E901A641444CF82010011EA0F101005B
:10288000C4DC029800F10050850F0298DDE903676F
:102890008000DDF8148001F0E4FD41EC1A0B3046B5
:1028A00001F0F6FD9FED541B53EC112B01F004FEDB
:1028B00041EC1B0B384601F0EBFD9FED511B53EC37
:1028C000112B01F0F9FD41EC180B404601F0E0FD41
:1028D0009FED4D1B53EC112B01F0EEFD41EC190B5C
:1028E00051EC180B53EC192B01F08CFB53EC1B2B08
:1028F00001F088FB53EC1A2B01F084FBCDE90801B1
:10290000002008909DED080B53EC1A2B51EC100B96
:1029100001F0DCFE53EC1B2B01F0D8FE53EC182B1E
:1029200001F0D4FE53EC192B01F0C4FE9FED381BCF
:1029300053EC112B01F0C0FD9FED370B41EC180B50
:1029400053EC102B9DED080B51EC100B01F0B4FD76
:1029500053EC182B01F056FB9FED310B41EC180B9B
:1029600053EC102B9DED080B51EC100B01F0A4FD66
:1029700053EC182B01F046FB41EC100B139810F0B0
:10298000004F06D06D4251EC100B01F0FDFA41EC06
:10299000100B284684ED000B41E60000000000000B
:1029A0000000000000000000FB21E93F7CD902404C
:1029B00000004054FB21F93F3163621A61B4D03DFD
:1029C000FB21F93F000000000000601A61B4D03D17
:1029D0007370032E8A19A33BFB21394100000000CC
:1029E00083C8C96D305FE43F000000000000E03F95
:1029F000822A0000D0290000000000000000103EE4
:102A0000000000000000103C000000000000103A30
:102A1000182D4454FB21F93D3326A611460B113CD9
:102A200000000054FB21F93D10B52DED040B2DEDF8
:102A3000088B82B0B0EE419AF0EE619A0B9820F0CC
:102A400000449FED4BABB4F1795F11DA9DED0A0BB9
:102A500051EC100B01F0D6FC002801BFB0EE4A0A81
:102A6000F0EE6A0A02B0BDEC088B04BF04B010BDE2
:102A70009DED0A0B53EC102B51EC100B01F01CFDDB
:102A800041EC180B3C480621B0EE480AF0EE680A0B
:102A9000784400F081F853EC182B51EC100B01F046
:102AA0000BFD9DED0A0B41EC1B0B53EC192B51EC6C
:102AB000100B01F001FD41EC190B53EC1B2B51ECF9
:102AC000180B01F0F9FC53EC192B01F0FFFD9FED01
:102AD0002C0B41EC190B53EC102B51EC180B01F0A3
:102AE000EBFC41EC100B2848844210DA53EC192B14
:102AF00051EC100B01F0EAFD53EC1A2B01F0DAFD5A
:102B000041EC100B02B0BDEC088B04B010BD1F48A7
:102B1000A042BCBF9FED1E1B8DED001B06DBA4F584
:102B200000100190002000909DED001B51EC100B57
:102B300053EC112B01F0CAFD9DED000B41EC180B7D
:102B400053EC102B51EC1A0B01F0C0FD41EC1A0BA9
:102B500053EC192B51EC180B01F0B8FD53EC1A2B68
:102B600001F0A8FD41EC100BCCE7000000000000D4
:102B7000000000000000F03FF4260000000000000C
:102B8000000000000000E03F3333D33F0000E93F86
:102B9000000000000000D23F70B504462DED028B0E
:102BA0004D1E00EBC500B0EE408AF0EE608A90ED5D
:102BB000000B35F0060017D053EC182B51EC100B1E
:102BC00001F07AFC41EC100B6D1E04EBC50090ED9A
:102BD000001B51EC100B53EC112B01F013FA41ECDC
:102BE000100B35F00600E7D1022D36D0042D1CD095
:102BF000062D1CBFBDEC028B70BD53EC182B51ECA5
:102C0000100B01F059FC94ED0A1B53EC112B01F051
:102C1000F9F953EC182B01F04FFC94ED081B53EC21
:102C2000112B01F0EFF941EC100B53EC182B51EC88
:102C3000100B01F041FC94ED061B53EC112B01F03D
:102C4000E1F953EC182B01F037FC94ED040B53EC35
:102C5000102B01F0D7F941EC100B53EC182B51EC71
:102C6000100B01F029FC94ED021B53EC112B01F029
:102C7000C9F953EC182B01F01FFC94ED001B53EC29
:102C8000112B01F0BFF9BDEC028B41EC100B70BDB4
:102C900031B504462DED040B2DED0A8BB0EE41BA93
:102CA000F0EE61BA0B989DED0A0B20F00040B0F1F8
:102CB000795F0DDA51EC100BFFF70DFC042808BF0B
:102CC00000F09AF89DED0A0BBDEC0A8B05B030BD03
:102CD00053EC102B51EC100B01F0EEFB41EC180BF8
:102CE0009DED0A0B53EC182B51EC100B01F0E4FB9B
:102CF00041EC190B2C48B0EE480AF0EE680A0521A9
:102D00007844FFF749FF9FED2ACBB0EE40AAF0EEE2
:102D100060AA9CB353EC1C2B51EC190B01F0CCFBBB
:102D200041EC1C0B53EC1A2B51EC190B01F0C4FBBA
:102D30009FED210B41EC190B53EC102B51EC1B0BAD
:102D400001F0BAFB53EC192B01F0C0FC53EC182B2B
:102D500001F0B2FB53EC1B2B01F0B8FC53EC1C2B25
:102D600001F0B4FC9DED0A1B53EC112B01F0A2FC09
:102D7000BDEC0A8B05B041EC100B30BDFFE753EC06
:102D80001A2B51EC180B01F097FB53EC1C2B01F0A4
:102D900039F953EC192B01F08FFB9DED0A1B53EC15
:102DA000112B01F02FF9E3E77C2500000000000063
:102DB000495555555555C5BF000000000000E03F7E
:102DC00010B553EC102B51EC100B01F01BF941EC3A
:102DD000100B10BD000000009FED050B10B553EC6B
:102DE000102B51EC100B01F0B5F941EC100B10BD9C
:102DF00000000000000000009FED050B10B553EC33
:102E0000102B51EC100B01F057FB41EC100B10BDD7
:102E1000000000000000001010B502884FF4FA63B3
:102E200041F630019A4205D804898C4202D34168A8
:102E3000491C06E08A4205D30189994202D84168BB
:102E4000491E416010BD000010B510EE100A01F0DF
:102E500027FD41EC100BFFF767FB9FED091B51ECC1
:102E6000100B53EC112B01F027FB9FED071B53ECCC
:102E7000112B01F06FF901F093F800EE100A10BD6C
:102E8000000000000000424000000040FB2109401B
:102E900000B58BB00020012103900490CDE906011C
:102EA000CDE908100590009001900290694606480F
:102EB000FDF704FC0448FDF78FFF03210248FDF7EE
:102EC0007CFB0BB000BD0000F402002008B5084BED
:102ED0000A4607491860002058609860D8600820AA
:102EE00018616B46A1F15000FDF779FB08BD0000A9
:102EF0004403002000B58BB0002001210390049012
:102F0000CDE90601CDE908100590009001900290EE
:102F100069460648FDF7D2FB0448FDF75DFF032133
:102F20000248FDF74AFB0BB000BD00001C03002067
:102F300008B5084B0A460749186000205860986099
:102F4000D860082018616B46A1F14000FDF747FBEF
:102F500008BD00005C03002010B50C46D1ED270A27
:102F600091ED290A084600F021F9BDEEC00A10EEE5
:102F7000100A00B2A4F8A800B4F9A01000EE101ACC
:102F8000F8EEC00A00EE100A04F13400B8EEC00AF0
:102F900000F00CF9BDEEC00A42F2107110EE100AFA
:102FA00000B2A4F8AC00884200DD08460449A4F849
:102FB000AC00884200DA0846A4F8AC0010BD00005E
:102FC000F0D8FFFF70B5064608880881308815469E
:102FD00040BA08800C460846FFF71EFF208894ED93
:102FE000010A00EE900A9FED0B1AB8EEC00AF8EE47
:102FF000600A00EE810ADFED080A20EE200A85ED66
:10300000270A708840BAA5F8A000B08840BAA5F891
:10301000A20070BD0000003900007A4482B0CDE902
:10302000000121F0004001909DED000B02B051EC39
:10303000100B7047FEF79EF8FFF752F8FEF79EFF61
:10304000FEF72EFFFEF74EFFFFF716F8FEF7F8FF2C
:10305000FFF71EFFFFF74EFF00F012F901220449AF
:103060000448FEF7FBFEFEF75FFF00F012F8FEE7F4
:103070001C0000207403002001460020842900D099
:10308000C81C704710B500B9012000F051FD0020A8
:1030900010BD10B500F072FD002010BD7FB50D46CB
:1030A00004464169B0F9080081B1A16971B1FFF727
:1030B000E3FFD4E905128DE80700D4E900102B46A0
:1030C000226900F06EFE039004B070BDFFF7D4FFDC
:1030D00003A9CDE90001208A2B4682B2D4E9001071
:1030E00000F032FE012801D00020EDE70398EBE765
:1030F00030B585B000202C4C0090019004900290D7
:103100000390B4F8AC004FF40075010A8DF800107C
:103110008DF80100B4F85C01010A8DF802108DF8F9
:103120000300B4F80C02010A8DF804108DF80500B4
:10313000B4F8BC02010A8DF806108DF80700694644
:103140002846FFF7C3FEB4F86C13080A8DF8100088
:103150008DF81110B4F81C14080A8DF812008DF8BF
:10316000131004A9681EFFF7B1FEB4F8CC04010ADD
:103170008DF808108DF80900B4F87C05010A8DF867
:103180000A108DF80B00B4F82C06010A8DF80C100B
:103190008DF80D0002A92846FFF7CAFE0520FDF7AD
:1031A000A9FE05B030BD00004404002030EE600AE6
:1031B00080ED070A80ED090AD0ED0A0A30EE801A88
:1031C00080ED0A1AD0ED060AF5EEC00AF1EE10FA0B
:1031D0000DD0B4EEE01AF1EE10FA06DCF1EE600A62
:1031E000B4EEE01AF1EE10FA01D2C0ED0A0AD0ED09
:1031F000050AF5EEC00AF1EE10FA11D0B0EE401A51
:10320000B4EEE01AF1EE10FA08DCB0EE401AF1EE7E
:10321000600AB4EEE01AF1EE10FA01D2C0ED090A2C
:1032200010EE101A104A914203DADFED100AC0EDD9
:103230000A0AD0ED080A70EE600AC0ED0B0A80EDB4
:10324000080A90ED000A90ED091AD0ED0A1A20EE56
:10325000010A90ED011A01EE210A90ED021A01EE29
:10326000200A80ED0C0A70470000A040000000001A
:10327000C0ED051A80ED062A80EC030A70470000B5
:1032800030B50025DFED504A504AB1EE0C4AF7EE5A
:10329000003A9FED4F3ADFED4F2A4F4B02F11401F8
:1032A000F0EE621AB0EE630AF0EE640AB0EE431A72
:1032B00005EB450082EC040A00EBC50003EB0014AB
:1032C000C2ED041A2046B0EE612AFFF7D1FFF0EEFE
:1032D000430A81ED004AC1ED010AF0EE621AC1ED28
:1032E000020AC1ED031AB0EE440AB0EE601AC1ED55
:1032F000041A04F13400B0EE612AFFF7B9FFED1CA7
:10330000092DCDDB01259FED354A00BFC2ED032A13
:1033100005EB4500C2ED042A00EBC500B0EE630AE0
:10332000F0EE430AB0EE431A03EB00142046B0EE71
:10333000622AF0EE621A82EC030AFFF799FFC1EDF0
:10334000032AC1ED042AB0EE630AF0EE440AB0EE9F
:10335000431A04F13400B0EE622AF0EE621A81ECF6
:10336000030AFFF785FFED1C092DCFDB5FF0020498
:10337000F0EE621AB0EE630AF0EE430AB0EE431AC2
:1033800004EB440082EC040A00EBC40003EB0010E1
:10339000C2ED041AB0EE612A0546FFF769FFB0EEF0
:1033A000630AF0EE440AB0EE431AF0EE621AB0EE91
:1033B000622A05F1340081EC050AFFF759FFE41C8D
:1033C000092CD5DB30BD0000CDCC4C3DE00A0020FF
:1033D00000000000003C1C4644040020CDCCCC3D45
:1033E0002DE9F041184C0F460546E6682068001D9F
:1033F00000F0D6FA38B9206890F82C1001208840E7
:10340000216981432161681C07D137B12168BDE87A
:10341000F0410E48091D00F007BB20683544B54255
:103420004560216805D2A06BBDE8F041091D00F0A0
:10343000E3BA606B091D00F0DFFAA06A854200D292
:10344000A562BDE8F081000038000020E40B0020F8
:103450002DE9F041054600F0F3FA2E4CA068401C1F
:10346000A06020682C4F10B1606940B32DE025604A
:10347000A068012829D1002606EB860007EB800012
:1034800000F0ACFA761C072EF6D323488C3000F0FF
:10349000A5FA2148A03000F0A1FA1F48B43000F08E
:1034A0009DFA1D48C83000F099FA1B48DC3000F046
:1034B00095FA19488C3060631430A06305E02068E9
:1034C000E96AC06A884200D82560606A401C606270
:1034D000E96A0120226988401043206101EB8100E4
:1034E00007EB8000291D00F09FFA00F0C9FA60691F
:1034F00000280CD02068E96AC06A884207D20749D0
:103500004FF080500860BFF34F8FBFF36F8FBDE85F
:10351000F081000038000020080B002004ED00E0DE
:1035200010B5044690F8510058B101280CD002287B
:103530000FD0502080F31188BFF34F8FBFF36F8FF0
:10354000FEE7206B00F0B0FA2046BDE8104000F026
:10355000ABBA10BD10484FF47051420706D0C01DE1
:103560000D4920F00700411AC1F570510B4A0023A4
:103570000144C2E900030839183A21F0070111603B
:103580004B600B600B1AC0E9001393604FF00040D2
:103590005360506170470000F80B00208C00002041
:1035A000144E154CA6F1C8074FF08058DFF84C9028
:1035B00012E000BF00F044FAF068C568281D00F072
:1035C000EFF9A068401EA0606068401E606000F0D7
:1035D00057FA2846FFF7A4FF60680028EAD1386848
:1035E0000128F9D9C9F80080BFF34F8FBFF36F8F5F
:1035F000F2E70000D00B00203800002004ED00E0CE
:103600002DE9F0479A46DDE9098481466FF003030E
:10361000206B03EB82021044089E20F00707780716
:1036200007D0502080F31188BFF34F8FBFF36F8F07
:10363000FEE7002561B1002023180A5C83F83420DE
:103640000A5C12B1401C1028F6D384F8435001E004
:1036500084F83450072E00D30626E662C4E91165CB
:10366000201D00F0C6F904F1180000F0C2F9246131
:10367000C6F107006462A061E56484F850505246C8
:103680004946384600F0C0F82060B8F1000F01D07C
:10369000C8F80040BDE8F08730B5114900E0114698
:1036A0000A688242FBD34B685C18844203D14068AD
:1036B00018444860084643681C18944209D1084CD5
:1036C000183C2468A24209D052681A4442600A6831
:1036D00012680260814200D0086030BD0460F9E7E2
:1036E0008C0000200648416B096829B1416BC9680C
:1036F000C9684968816270474FF0FF31FAE70000FE
:103700003800002008484068401C4FF0500080F30B
:10371000118804D0BFF34F8FBFF36F8FFEE7BFF365
:103720004F8FBFF36F8FFEE7940000202DE9F0412B
:103730000546002700F058FA324E306808B9FFF706
:1037400009FF706905424ED1C5B3083568070ED030
:1037500005F00700C0F108000544680707D05020B5
:1037600080F31188BFF34F8FBFF36F8FFEE72DB348
:103770007068854237D82348183001460C6801E04C
:1037800020460C466168A94202D221680029F7D17F
:1037900031688C4227D0076821680160606808376B
:1037A000411B10290FD96019420708D0502080F31F
:1037B0001188BFF34F8FBFF36F8FFEE713E04160B7
:1037C0006560FFF769FF61687068401A7060B268F1
:1037D000904200D2B060706901430020C4E900014A
:1037E000F068401CF06000F06DFB780707D05020B7
:1037F00080F31188BFF34F8FBFF36F8FFEE738461A
:10380000BDE8F0817400002010B5031F4FF08074F4
:103810001C601B1F21F001011960191F044B0B6074
:1038200014390A60091F6FF0020244380A6010BDA3
:10383000053700082DE9F041274E05462DED028B96
:1038400030784E2800D94E20307000EB400005EB58
:10385000800095ED000AD0ED030A9FED208A204FED
:1038600030EE600A012420EE080A87ED290A30783C
:1038700000EB400005EB800000EB840090ED030AB4
:1038800005EB8400D0ED000A30EEC00AFFF7DCFA49
:1038900004EB440020EE080A00EBC40007EB001024
:1038A00080ED290A307895ED010A00EB400005EB28
:1038B0008000D0ED040A30EE600AFFF7C5FA641C00
:1038C00086ED010A032CD2DB3078401C3070BDEC51
:1038D000028BBDE8F08100003000002000A00C4702
:1038E00044040020134F144D144E00BF00F0A8F8FC
:1038F0005FF0000404EB440000EBC40005EB001192
:1039000004EB440007EB8000FFF726FB641C092C46
:10391000F0DBFFF7EDFB95ED530A86ED010A95ED1F
:10392000550A86ED020A00F0ABF80120FFF7AAFB6A
:10393000DCE70000740A002044040020000000209E
:10394000064D074E074F002441F294182878307036
:103950003C704046FFF796FBF8E700001C00002093
:1039600000000020300000200A4C00BF00F068F882
:103970002078012803D0022803D0032804D1064868
:1039800000E00648FFF756FF00F07AF83220FFF714
:1039900079FBEBE700000020044A0008C44D000852
:1039A000D0E9013201699A60D0E901235A604A687E
:1039B000824201D182684A60002202610868401E8A
:1039C0000860086870470000034B036003F154006F
:1039D0000860802010607047A000002000F10801FE
:1039E0004FF0FF32C0E90112C160016100210160A6
:1039F000704700210161704730B50B685A1C02D036
:103A000000F1080202E0026904E0224654682568D9
:103A10009D42FAD953684B6099608A605160086191
:103A20000168491C016030BD42684A6093688B6040
:103A300093685960916008610168491C0160704792
:103A4000502080F31188BFF34F8FBFF36F8F0A4967
:103A50004868401C486001280CD10848006810F0F4
:103A6000FF0F07D0502080F31188BFF34F8FBFF3B3
:103A70006F8FFEE7704700009400002004ED00E027
:103A80000849486828B1401E486001D180F3118878
:103A90007047502080F31188BFF34F8FBFF36F8FB3
:103AA000FEE700009400002070B500282AD0164DD3
:103AB000A0F1080460686969084207D1502080F3CA
:103AC0001188BFF34F8FBFF36F8FFEE722683AB1C3
:103AD000502080F31188BFF34F8FBFF36F8FFEE745
:103AE0008843606000F080F8606869680844686036
:103AF0002046FFF7D1FD2869401C2861BDE87040D1
:103B000000F0E0B970BD0000740000204FF0E0202C
:103B100000210161816105494FF47A720968B1FBA6
:103B2000F2F1491E41610721016170472C0000201C
:103B300010B5020014D00F48006B38B1502080F34C
:103B40001188BFF34F8FBFF36F8FFEE700F04CF883
:103B500000211046FFF744FC00F0B4F9002807D11B
:103B600005494FF080500860BFF34F8FBFF36F8F50
:103B700010BD00003800002004ED00E010B586B054
:103B80000024039405AA04A903A80494FFF71CFFCA
:103B9000DDE903010094CDE9011000230EA11048D6
:103BA000059A00F0FEF80F490028C86211D0502095
:103BB00080F31188BFF34F8FBFF36F8F4FF0FF304B
:103BC000886201204861CC6006B0BDE8104000F07A
:103BD00041B806B010BD000049444C45000000004B
:103BE000A1350008380000200248016B491C016320
:103BF00070470000380000201448016B11B101210A
:103C0000C16170470021C1610169B1FA81F1C1F15F
:103C10001F0101EB81020E4951F822306BB101EB1B
:103C2000820101F108034A6852684A609A4201D150
:103C300052684A60D16801607047502080F3118853
:103C4000BFF34F8FBFF36F8FFEE7000038000020F7
:103C5000080B00201CB537480168374A914207D14C
:103C6000502080F31188BFF34F8FBFF36F8FFEE7B3
:103C700000683149491E884207D1502080F31188DD
:103C8000BFF34F8FBFF36F8FFEE72C490878019089
:103C9000FF20087008788DF800009DF800009DF85E
:103CA000002000F0F000904207D0502080F31188EF
:103CB000BFF34F8FBFF36F8FFEE79DF80000204CDE
:103CC00000F0500020700720A06005E09DF8002063
:103CD00052008DF80020401E9DF800201206F5D4F9
:103CE000A060032807D0502080F31188BFF34F8FC6
:103CF000BFF36F8FFEE74FF44070A060019808702B
:103D00000C482030016841F470010160016841F005
:103D100070410160FFF7FAFE00206060FCF7BAFA1C
:103D20000848016841F040410160FCF79FFA00201B
:103D30001CBD000000ED00E071C20F4100E400E096
:103D40009400002034EF00E02DE9FF5F8346DDE9B9
:103D50000E87994616468A469000FFF7E7FC050055
:103D60001CD05420FFF7E2FC040014D0002025638F
:103D700084F85100CDE90240CDE900874B46324638
:103D800051465846FFF73CFC2046FFF761FB0120F7
:103D900004B0BDE8F09F2846FFF786FE4FF0FF30E5
:103DA000F6E7F0B585B0DDE90B640A9DA6B1DCB19C
:103DB000542700972663022684F85160002604AF3A
:103DC000CDE90246CDE90057FFF71AFC2046FFF780
:103DD0003FFB049805B0F0BD502080F31188BFF37D
:103DE0004F8FBFF36F8FFEE7502080F31188BFF332
:103DF0004F8FBFF36F8FFEE72DE9F0412F4C002668
:103E0000206B28B1A069401CA0613046BDE8F0815C
:103E1000E5686D1CE56013D1606B006838B1502017
:103E200080F31188BFF34F8FBFF36F8FFEE7606B96
:103E3000A16B6163A063206A401C2062FFF752FC03
:103E4000A06ADFF87C80854209D3606B0068A0B16E
:103E5000606BC068C7687868854211D2A06220682C
:103E6000C06A00EB800158F82100012800D9012622
:103E7000E0690028C9D00126C7E74FF0FF30EDE721
:103E8000381DFFF78DFDB86A18B107F11800FFF76C
:103E900087FDF96A0120226988401043206101EB07
:103EA000810108EB8100391DFFF7BEFDF86A21682A
:103EB000C96A8842C9D30126C7E70000380000203C
:103EC000080B00202DE9F0472C4D00242746286BD5
:103ED00038B1FFF7B5FD286B401E2863286B40B151
:103EE00046E0502080F31188BFF34F8FBFF36F8FF0
:103EF000FEE7A968224E0120D1B3A6F1B40980469D
:103F00003068E8B1F068C46804F11800FFF748FDB4
:103F1000201DFFF745FDE06A2A6908FA00F1114308
:103F2000296100EB800109EB8100211DFFF77CFD79
:103F3000E06A2968C96A8842E2D3C5F81C80DFE7D5
:103F40000CB1FFF7CFFBAC6944B14646FFF754FF15
:103F500000B1EE61641EF9D10020A861E86938B1B2
:103F60000849012738070860BFF34F8FBFF36F8FF1
:103F7000FFF786FD3846BDE8F087000038000020D6
:103F8000BC0B002004ED00E081F00041704780F0A0
:103F90000040704721F00041704720F0004070471A
:103FA00021F00042A2F16052B2F5801F01F00043FF
:103FB00028BFD2F17F6C0BD95FEA001C43EAC20232
:103FC00042EB507018BF704728BF20F001007047C7
:103FD000B2F5801FBCBF184670474FEA410C1CF574
:103FE000001F02D2084600F0D1BC70B500F00EFBF5
:103FF00000000089FFF7F6BF4FF00040A0F58000F9
:104000007047000010B591EA030F48BF83F00043EA
:1040100000F16483841A71EB030C05D2121943EB8F
:104020000C03001B61EB0C01DFF824E14FEA115493
:10403000A4EB135C1EEA430F18BF9EEA445F73D0E3
:1040400023EA0E03DCF1200E21EA045143F480132D
:1040500032D322FA0CFE10EB0E0023FA0CFE41EBD9
:104060000E01CCF1200E03FA0EFE10EB0E0051F102
:104070000001B1F5801FCCF1200E32D201EB0451CA
:1040800012FA0EF2BDE8104058BF7047401C38BF0E
:104090005FEA420218BF7047002814BF20F00100F9
:1040A00041F100014FEA410313F5001F38BF70478B
:1040B000A1F1C04100F0F8BA012A43EB0302ACF1D0
:1040C000200CDCF11F0E32BF4FF0000E23FA0CF370
:1040D00010EB030041EB0451B4EB115FD0D0A1EB26
:1040E000045101F5801149085FEA300001EB0451E9
:1040F0000ED350F1000038BF12FA0EFE08D1BDE811
:104100001040C9E7401C38BF5FEA4202CAD1C3E78A
:10411000BDE810404FEA410313F5001F38BF704758
:10412000A1F1C04100F0C0BA9EEA445F08D011EA94
:104130005E0FBDE8104004BF01F000410020704751
:10414000BDE8104070B500F061FA00BF64FBBE3EF0
:104150000000E0FF2DE9C04130B4DFF8A0C23CEA26
:10416000111418BF3CEA131400F0EC8081EA030537
:104170001CEA111444EAD57418BF1CEA131500F0A8
:10418000C780A4EB05044FF0004545EAC12145EA8C
:10419000C32341EA505143EA525304F17F749942D8
:1041A00004F500344FEAC0204FEAC22208BF904213
:1041B00000F09C804FEA13650FF24016765D4FEADF
:1041C000134506FB05F7C7F1807706FB07F74FEAB3
:1041D000D737A7FB03687642C8F58038A7FB06CE21
:1041E00038BFA8F1010807FB08E64FF0000EA6FB58
:1041F000028CE6FB03CEDCF1000CCEF1004E38BFA2
:10420000AEF1010EA6FB0C584FF000074FF0000571
:10421000E6FB0E87A1FB08C6A0FB07CE16EB0E0639
:1042200045F10005E1FB076515F1E04E7EBFA4F501
:1042300080345FEA46066D4116F1800745F10005BE
:104240004FEA17274FEA066647EA0567A6F1DE46FA
:10425000B6F1805F4FEA15251FD9384624F0010CCE
:1042600005EBC471BCF1FE6F01EB0C1102D8F0BC80
:10427000BDE8008124425CBF01F5801E9EEAC47F38
:1042800002D4F0BCBDE80081244238D4F0BCA1F1D6
:10429000C041BDE8004100F007BA4FEAD22242EA2D
:1042A00043524FEAD323A7FB02864FEAD02040EACD
:1042B000415007FB03661EEA0E0F4FEAD12105FBB2
:1042C000026658BFA6EB0056B6EB00564FEA520EF8
:1042D0004EEAC37E18EB0E0E56EB530EBDD518EB0F
:1042E00002085E417F1C55F10005B6E74FF48015CA
:1042F0004FF000074FF000064FF00008ADE7F0BCAC
:104300004FF0000001F1C04101F00041BDE8008123
:1043100011EA0C1F0CEA131500D00CE013EA0C1F75
:1043200000F025804FF00000F0BC81EA030101F0AD
:104330000041BDE80081F0BCBDE8004181EA030115
:1043400000F0B2B9F0BCBDE8004170B500F05EF914
:10435000097EFC3E00F007B881EA03014FF000003F
:1043600001F00041704781EA030100F09DB9F0BC03
:10437000BDE800414FF0000021497047FFFDFBF907
:10438000F7F5F4F2F0EEEDEBE9E8E6E4E3E1E0DE88
:10439000DDDBDAD8D7D5D4D3D1D0CFCDCCCBCAC8FA
:1043A000C7C6C5C4C2C1C0BFBEBDBCBBBAB9B8B721
:1043B000B6B5B4B3B2B1B0AFAEADACABAAA9A8A814
:1043C000A7A6A5A4A3A3A2A1A09F9F9E9D9C9C9BE2
:1043D0009A9999989797969595949393929191908D
:1043E0008F8F8E8E8D8C8C8B8B8A8989888887871E
:1043F0008685858484838382828181800000FF0793
:104400000000F87F4FEA41034FEA5353A3F580635E
:10441000D3F11E03C8BFD3F1210C0CDD4FF00042D5
:1044200042EAC12242EA505232FA03FC8CEAE17CB1
:10443000ACEBE1707047102BC4BF0020704703F550
:10444000787CBCF1FF3F04D06FF0004282EA21008B
:10445000704770B500F0DAF8499224800020704768
:10446000F2E710F0004248BF4042B0FA80F310FA81
:1044700003F10AD0C3F11D0303F580634FEA4150F5
:1044800002EB035202EBD12170474FF0000070475E
:10449000B0FA80F310FA03F10AD0C3F11D0303F55B
:1044A00080634FEA41504FEA035202EBD12170473B
:1044B0004FF0000070470000DFF848C170B51CEAFB
:1044C000111E1EBF1CEA13159EEA0C0F95EA0C0F75
:1044D00000F06F8081EA030423EA4C134EEAD47E95
:1044E00021EA4C1141F4801143F48013AE44A1FB46
:1044F000024CA0FB0365AEF17F7E361955EB0C052F
:10450000A1FB034C4CF10003A0FB021C16EB0C06B4
:10451000654153F10003094218BF46F0010613F448
:10452000007F0BD14FEA03314FEA0530340341EAF3
:10453000155140EA16506FF003020AE04FEAC3211A
:104540004FEAC520F40241EA555140EA56506FF057
:10455000020202EB2E4201EB025585EACE710AD02F
:104560005FEA440C18BF24F0004450F1000041F110
:10457000000120EAD47040F2FE7C624500D270BD9A
:10458000A84214BF4FF080444FF04044002E08BFB3
:104590000024BEF1806FA8BFA1F1C041BDE870400A
:1045A00080F282804FF0000001F1C04101F0004133
:1045B00070479EEA0C0F0CEA131518BF95EA0C0F12
:1045C00006D04FF0000081EA030E0EF0004170BDEE
:1045D00000F01CF88900013E00F007B800F009B8AF
:1045E0004FEA430C5FEA5C5C08D081EA030100F00B
:1045F0005BB84FEA410C5FEA5C5CF6D14FF000001B
:10460000014970470000FF070000F87F0EF1020E1D
:104610002EF0030E5EF8046B364205D4012A43EBFC
:10462000030515F5001F12D8012841EB010C1CF5FC
:10463000001F0CD80ED14FEAD17C15F5001F0CEBF2
:104640004C0C0CF1020C08BF4CEBD37C04E04FF097
:10465000080C01E04FEAD37C0CEB4C0526FA05F67A
:1046600006F00706B6F1040C06D20EEB860CBDE888
:1046700070404CF0010C6047DFE80CF0090B0202BF
:104680004FF000414FF00000A1F5002170BD194628
:104690001046012851EB010418BFD4F5001484BF63
:1046A000002001F0004170BD0808A0F500114FEA9C
:1046B0003101704791EA030F10B581F000413FF5D9
:1046C000A9AC83F0004300F009B8000010B591EAEE
:1046D000030F48BF83F000433FF59CAC841A71EB95
:1046E000030C07D212198CF0004C43EB0C03001B97
:1046F00061EB0C01DFF8A4E14FEA1154A4EB135C69
:104700001EEA430F18BF9EEA445F00F0B08023EA20
:104710006E03524221EA0451C3EB6E0338BF5B1EA5
:10472000DCF1200E25D322FA0CFE10EB0E0043FA2A
:104730000CFE41EB0E01CCF1200E03FA0EFE10EB45
:104740000E0051F10001CCF1200E29D412FA0EF224
:1047500001EB0451BDE8104058BF7047401C1CBF1E
:10476000B2F1004F704700280CBF491C20F0010037
:10477000704712EB020E43EB030218BF4FF0010E1D
:104780004EEA4202ACF1200CDCF11E0E54D943FA81
:104790000CFE10EB0E0051F1FF31CCF11E0ED5D501
:1047A0000EF1010E12FA0EFE404141EB010101EB48
:1047B000445C5FEA5C5C10D910EBDE7001EB0451E5
:1047C00038BFBEF1004FBDE8104018BF7047002849
:1047D0000CBF491C20F00100704730D24FEAD42CA6
:1047E00011F5001124F400641BD0B1FA81F20B3AE8
:1047F000A41AA41ED2F12003914030FA03F3194306
:10480000904001EBCC71002C01EB0451BDE810404D
:10481000A8BF704701F1C0414FF0000001F0004116
:104820007047B0FA80F310FA03F100D110BDE41A1A
:10483000173C4805C90AE4E701EB045110BD4910D3
:1048400001EB0451BDE810404FEA300002E04FF0A8
:10485000000170474A0008BF0042F8D0B2F5001FBF
:1048600028BF704701F000414FF0000070479EEAFA
:10487000445F07D011EA5E0FBDE8104004BF00217D
:1048800000207047BDE8104070B5FFF7BFFE00BFC5
:1048900040DFF63E83F00041104670470000E0FF25
:1048A00043004FEAD30C4FEA3C0C43401FBF400784
:1048B0000CF1605113F0FE4F70471CF0006F03D1F4
:1048C00000200CF0004170470CF0004343EA5070A8
:1048D00010B540EACC0000F00EF800BF00000092D6
:1048E0004FEA0001FFF7E0BE4FF000414FF000003B
:1048F000A1F5002170470EF1020E2EF0030E5EF8B6
:10490000044B244204D44FEA4102B2F17F4F11D844
:104910004FEA4003B3F17F4F0CD80ED14FEAD07C61
:10492000B2F17F4F0CEB4C0C0CF1020C08BF4CEBBE
:10493000D17C04E04FF0080C01E04FEAD17C0CEB95
:104940004C0324FA03F404F00704B4F1040C06D277
:104950000EEB840CBDE810404CF0010C6047DFE822
:104960000CF0070802024FF00040A0F5800010BDD7
:104970000846420018BFD2F1807288BF00F00040A4
:1049800010BD4FF04070E1EE100A7047FF2141EA80
:10499000D050C00570470000C052000841390008DF
:1049A0000300000000000000800000000000000084
:1049B00000000000B0520008693900080200000041
:1049C0000000000080000000000000000000000067
:1049D000A8520008E53800080200000000000000AE
:1049E0008000000000000000000000000000000047
:1049F000000000000102030406070809000000008F
:104A0000010203043A23EA3E211FF43EC729C2BF34
:104A10000309EA3E61C3F33EBC05C2BF151DE93E72
:104A20003C4EF13E4013C1BF5DDCE63ECC5DEB3E4B
:104A300042CFBEBF38F8E23E772DE13E48E1BABF33
:104A40005249DD3EB37BD23EA835B5BFC6DCD53E6C
:104A5000EE7CBF3E7FD9ADBFB1BFCC3E8CDBA83E64
:104A6000C807A5BFD34DC23E60768F3E280F9BBFBF
:104A7000EBE2B63E8CDB683E795890BF9FCDAA3EF4
:104A80006ADE313EB45985BFC9769E3ED93DF93DB7
:104A90002B1875BF7C61923E07F0963D80B760BFD2
:104AA00042CF863E93A9023DC9764EBFEC51783E77
:104AB0006F1203BB4DF33EBF0B46653E645DDCBC2D
:104AC00005A332BF1895543E7B142EBD43AD29BFBC
:104AD0008273463EA8574ABDB3EA23BFC7293A3E70
:104AE000151D49BD0EBE20BFD7342F3E7DAE36BD4D
:104AF000A01A1FBFD7342F3E7DAE36BDA01A1FBFF0
:104B00005474243E789C22BD9FAB1DBF3EE8193EE5
:104B10004FAF14BD8CB91BBF05C50F3E2A3A12BD5D
:104B2000A7E818BFA60A063E2DB21DBD9D1115BFF0
:104B3000B5A6F93DEC5138BDC52010BFD509E83DFB
:104B4000AE4761BD3A230ABF3D0AD73D03788BBD0E
:104B50006A4D03BF5DDCC63D569FABBD6B9AF7BE89
:104B60005917B73DF241CFBD9EEFE7BE5452A73D66
:104B70006ABCF4BD7E1DD8BE508D973D711B0DBE25
:104B800070CEC8BE022B873D89D21EBEDAACBABE3B
:104B9000B1BF6C3DFBCB2EBECD3BAEBEF085493DDB
:104BA00011363CBE26E4A3BEC1A8243DF0A746BEF4
:104BB0006DE79BBE917EFB3C29ED4DBEF46C96BE2D
:104BC000C364AA3C2A3A52BE4F4093BE31082C3CE3
:104BD000CFF753BEA1F891BE00000000744654BE4A
:104BE00033C491BE00000000744654BE33C491BE6D
:104BF00031082CBCCFF753BEA1F891BEC364AABC48
:104C00002A3A52BE4F4093BE917EFBBC29ED4DBE69
:104C1000F46C96BEC1A824BDF0A746BE6DE79BBE4E
:104C2000F08549BD11363CBE26E4A3BEB1BF6CBDC4
:104C3000FBCB2EBECD3BAEBE022B87BD89D21EBEA6
:104C4000DAACBABE508D97BD711B0DBE70CEC8BE1A
:104C50005452A7BD6ABCF4BD7E1DD8BE5917B7BD5E
:104C6000F241CFBD9EEFE7BE5DDCC6BD569FABBD3A
:104C70006B9AF7BE3D0AD7BD03788BBD6A4D03BF63
:104C8000D509E8BDAE4761BD3A230ABFA60A06BEF4
:104C90002DB21DBD9D1115BF05C50FBE2A3A12BD0F
:104CA000A7E818BF3EE819BE4FAF14BD8CB91BBFB3
:104CB000547424BE789C22BD9FAB1DBFD7342FBE39
:104CC0007DAE36BDA01A1FBFD7342FBE7DAE36BD18
:104CD000A01A1FBFC7293ABE151D49BD0EBE20BF71
:104CE000827346BEA8574ABDB3EA23BF189554BE87
:104CF0007B142EBD43AD29BF0B4665BE645DDCBC95
:104D000005A332BFEC5178BE6F1203BB4DF33EBF1B
:104D10007C6192BE07F0963D80B760BFC9769EBEAB
:104D2000D93DF93D2B1875BF9FCDAABE6ADE313E35
:104D3000B45985BFEBE2B6BE8CDB683E795890BFB4
:104D4000D34DC2BE60768F3E280F9BBFB1BFCCBE95
:104D50008CDBA83EC807A5BFC6DCD5BEEE7CBF3E37
:104D60007FD9ADBF5249DDBEB37BD23EA835B5BFBA
:104D700038F8E2BE772DE13E48E1BABF5DDCE6BE21
:104D8000CC5DEB3E42CFBEBF151DE9BE3C4EF13EB1
:104D90004013C1BF0309EABE61C3F33EBC05C2BFF5
:104DA0003A23EABE211FF43EC729C2BF000000001B
:104DB00000000000000000000000000000000000F3
:104DC000000000003A23EABE0000000000000000DE
:104DD0003A23EABE00000000000000003A23EABEC9
:104DE00000000000000000003A23EABE00000000BE
:104DF000000000003A23EABE0000000000000000AE
:104E00003A23EABE00000000000000003A23EABE98
:104E100000000000000000003A23EABE000000008D
:104E2000000000003A23EABE00000000000000007D
:104E30003A23EABE00000000000000003A23EABE68
:104E400000000000000000003A23EABE000000005D
:104E5000000000001E16EABE000000000000000076
:104E6000E7FBE9BE000000000000000095D4E9BEA9
:104E7000000000000000000027A0E9BE00000000C4
:104E8000000000004C37E9BE0000000000000000F8
:104E900039B4E8BE00000000000000009EEFE7BE4D
:104EA000000000000000000042CFE6BE000000004D
:104EB000000000002653E5BE0000000000000000D6
:104EC000F853E3BE000000000000000065AAE0BE49
:104ED00000000000000000006D56DDBE0000000074
:104EE00000000000A323D9BE000000000000000065
:104EF000CFF7D3BE0000000000000000BBB8CDBE5D
:104F00000000000000000000143FC6BE00000000CA
:104F100000000000BF7DBDBE0000000000000000DA
:104F2000A167B3BE00000000000000009EEFA7BE16
:104F300000000000000000009A089BBE0000000076
:104F400000000000B1BF8CBE0000000000000000A7
:104F5000FE437ABE00000000000000003E7958BE0B
:104F60000000000000000000C66D34BE000000001C
:104F700000000000728A0EBE000000000000000069
:104F8000F2D2CDBD00000000000000006C0979BD28
:104F90000000000000000000304CA6BC0000000033
:104FA00000000000304CA63C0000000000000000A3
:104FB0006C09793D0000000000000000F2D2CD3DF8
:104FC0000000000000000000728A0E3E0000000099
:104FD00000000000C66D343E00000000000000002C
:104FE0003E79583E0000000000000000FE437A3E7B
:104FF0000000000000000000B1BF8C3E0000000077
:10500000000000009A089B3E000000000000000025
:105010009EEFA73E0000000000000000A167B33E25
:105020000000000000000000BF7DBD3E0000000049
:1050300000000000143FC63E000000000000000019
:10504000BBB8CD3E0000000000000000CFF7D33E0B
:105050000000000000000000A323D93E0000000073
:10506000000000006D56DD3E000000000000000062
:1050700065AAE03E0000000000000000F853E33E97
:1050800000000000000000002653E53E0000000084
:105090000000000042CFE63E0000000000000000DB
:1050A0009EEFE73E000000000000000039B4E83E3B
:1050B00000000000000000004C37E93E0000000046
:1050C0000000000027A0E93E0000000000000000F2
:1050D00095D4E93E0000000000000000E7FBE93E37
:1050E00000000000000000001E16EA3E0000000064
:1050F000000000003A23EA3E00000000000000002B
:105100003A23EA3E00000000000000003A23EA3E95
:1051100000000000000000003A23EA3E000000000A
:10512000000000003A23EA3E0000000000000000FA
:105130003A23EA3E00000000000000003A23EA3E65
:1051400000000000000000003A23EA3E00000000DA
:10515000000000003A23EA3E0000000000000000CA
:105160003A23EA3E00000000000000003A23EA3E35
:1051700000000000000000003A23EA3E00000000AA
:1051800000000000000000004C5555555555A53F46
:105190007751C1166CC156BF9015CB19A001FA3ECC
:1051A000AD529C804F7E92BEC4B1B4BD9EEE213EF6
:1051B000D43888BEE9FAA8BD00004054FB21F93F6D
:1051C0003163621A61B4D03D0000601A61B4D03D11
:1051D0007370032E8A19A33B0000002E8A19A33B8B
:1051E000C14920259A837B3900000000000000009F
:1051F0006E83F9A22915444ED15727FCC0DD34F542
:10520000999562DB4190433CAB6351FE61C5BBDEC7
:105210003A6E24B7E0D24D42EA2E49061C92D109DB
:105220001CEB1DFE3EA729B1F53582E88444BB2E58
:1052300026709CE9417E5FB439D69139F4395383A5
:105240008B5F849C3B28F9BDFF97F81F0F9805DE04
:105250008B112FEF1F6D0A5ACF7E366DB709CB2702
:10526000663F464F2DEA5F9EC7BA27757BF1E5EB97
:10527000F739073DEA92528AB15FFB6B085D8D1FDB
:10528000A6F810111111813FD561C119A0012ABFE3
:105290007DFEB157E31DC73EEB9C2B8AE6E55ABE67
:1052A0007CD5CF5A3AD9E53D4461746100000000D5
:1052B000546172616E676C655F53776974636800EF
:1052C00053746174655F537769746368000000000C
:1052D000F052000800000020A0000000E8010008D3
:1052E00090530008A0000020B84D00000402000800
:1052F00000000000000000000000000000000000AE
:10530000000000000000000000000000010000009C
:105310000100000010000000000000000024F40064
:10532000000000000000000000000000000000007D
:10533000000000000000000000000000000000006D
:10534000000000000000000000000000000000005D
:10535000000000000000000000000000000000004D
:10536000000000000000000000000000000000003D
:10537000000000000000000000000000000000002D
:105380000000000000000000AAAAAAAA0000000075
:04000005080001AD41
:00000001FF
