:020000040800F2
:10000000100800204D020008471C0008491A00088B
:10001000451C000843040008A51F0008000000005C
:100020000000000000000000000000004B1C000861
:100030000905000800000000491C00084D1C0008CC
:1000400067020008670200086702000867020008EC
:1000500067020008670200086702000867020008DC
:1000600067020008670200086702000867020008CC
:1000700067020008670200086702000867020008BC
:1000800067020008670200086702000851040008C0
:1000900045040008670200086702000867020008BC
:1000A000670200086702000867020008670200088C
:1000B000670200086702000867020008670200087C
:1000C000670200086702000867020008670200086C
:1000D000670200086702000867020008670200085C
:1000E000670200086702000867020008670200084C
:1000F000670200086702000867020008670200083C
:10010000670200086702000867020008670200082B
:10011000670200086702000867020008670200081B
:1001200067020008750400086702000867020008FB
:1001300067020008670200086702000869040008F7
:100140005D040008670200086702000867020008F3
:10015000670200088104000867020008991F000870
:1001600067020008670200086702000867020008CB
:10017000670200086702000867020008000000002C
:1001800067020008670200086702000867020008AB
:10019000670200086702000867020008670200089B
:1001A00000000000000000006702000800F002F8F4
:1001B00000F03CF80AA090E8000C82448344AAF1C5
:1001C0000107DA4501D100F031F8AFF2090EBAE8C3
:1001D0000F0013F0010F18BFFB1A43F0010318477B
:1001E000801E0000A01E0000103A24BF78C878C10D
:1001F000FAD8520724BF30C830C144BF04680C602D
:10020000704700000023002400250026103A28BF74
:1002100078C1FBD8520728BF30C148BF0B60704778
:100220001FB501F007FF1FBD10B510BD00F0CFF8DE
:100230001146FFF7F5FF01F0C6FE00F0EDF803B43C
:10024000FFF7F2FF03BC00F0F5F800000948804713
:1002500009480047FEE7FEE7FEE7FEE7FEE7FEE7A8
:10026000FEE7FEE7FEE7FEE704480549054A064BC0
:1002700070470000E51C0008AD01000810020020D6
:1002800010080020100400201004002053EA020C83
:1002900000F069802DE9F04B4FF00006002B1FBFE6
:1002A000B3FA83F503FA05F424FA05F65E4012BFAB
:1002B0001643B2FA82F502FA05F4C5F120051EBF15
:1002C00022FA05FC44EA0C04203556EA044C4FEAB5
:1002D000144418BF641C4FF000084FF0000990420E
:1002E00071EB030C39D3002919BFB1FA81F701FA78
:1002F00007F6B0FA80F700FA07F6C7F120071EBF2D
:1003000020FA07FC46EA0C062037B6FBF4FCA7EB04
:100310000507103F07F01F0BCBF120060CFA0BFB73
:100320002CFA06F644BFB3460026202FA4BF5E4633
:100330004FF0000B5BEA060C08BF4FF0010B19EB06
:100340000B09ABFB027C48EB0608C01B06FB02CC8A
:100350000BFB03CC71EB0C01C1E70B460246414697
:100360004846BDE8F08B13B54FF000004FF0000198
:10037000AFF30080BDE81C4070474FF0000200B5AD
:10038000134694469646203922BFA0E80C50A0E8B8
:100390000C50B1F12001BFF4F7AF090728BFA0E866
:1003A0000C5048BF0CC05DF804EB890028BF40F832
:1003B000042B08BF704748BF20F8022B11F0804F74
:1003C00018BF00F8012B704770477047704775469B
:1003D00000F02CF8AE4605006946534620F00700B1
:1003E000854618B020B5FFF73FFFBDE820404FF02D
:1003F00000064FF000074FF000084FF0000B21F00F
:100400000701AC46ACE8C009ACE8C009ACE8C009DB
:10041000ACE8C0098D46704710B50446AFF30080C4
:100420002046BDE81040FFF70ABF000000487047B3
:10043000AC01002001491820ABBEFEE726000200F7
:100440007047FEE7014800F063B800001400002088
:10045000014800F05DB8000014000020014800F0E1
:1004600057B800003C000020014800F051B80000DF
:100470003C000020014800F0CDBA0000EC00002054
:10048000014800F0C7BA00004C01002001681823A1
:10049000CAB2103AB2FBF3F2054B6FF30901032A1B
:1004A0009B5CC36500D9091D816508467047000043
:1004B0003E20000810B5014600208B698A6A4FF083
:1004C000C07453B1B3F5005F15D072B1012A0CD0DE
:1004D000022A0AD0032A09D104E01AB1012A06D05F
:1004E000022A03D1C96AC90100D5012010BDC96A19
:1004F000A142FAD010BD002AF7D0012AF2D0022A78
:10050000F3D0032AF3D010BD704772B6FEE77047F0
:100510002DE9F05F0546006800244669D0F8049094
:100520008768D0F80CB0D0F810A0D0F81880F10788
:1005300048D0F90714D001218160B80703D52846B7
:1005400000F006FA0CE0780702D54FF4006407E0EB
:10055000380702D54FF4805402E0284600F0F7F93E
:10056000F80516D529684FF480708860B80503D562
:10057000284600F0EFF90CE0780502D544F4005469
:1005800007E0380502D544F4804402E0284600F034
:10059000E0F9F80316D529684FF480308860B80375
:1005A00003D5284600F0D8F90CE0780302D544F4CE
:1005B000004407E0380302D544F4803402E02846C2
:1005C00000F0C9F9300707D55FEACB6004D5296888
:1005D000102044F40074C86070074FF0080707D576
:1005E0005FEA0B7004D52868C760284600F0AAF9B6
:1005F000B00706D52868C068800702D0284600F0FA
:10060000A2F9700607D55FEACA6004D529681020F0
:1006100044F480640861B00607D55FEA0A7004D527
:1006200028680761284600F08FF9F00606D528688B
:100630000069800702D0284600F087F9B00308D58A
:100640005FEAC96005D5296810204860284600F097
:100650007DF9F00307D55FEA097004D52868476083
:10066000284600F07AF9300446D55FEA497040D553
:10067000F00504D55FEAC87001D044F00104B0056C
:1006800004D55FEA887001D544F00204700504D5F2
:100690005FEA487001D544F00404300529D518F00C
:1006A000700F26D008F07000402815D006DC102806
:1006B00009D020280AD0302816D10AE050280ED0C0
:1006C000602811D10EE044F008040DE044F010045D
:1006D0000AE044F0200407E044F0400404E044F061
:1006E000800401E044F480742868816921F070017D
:1006F0008161296804204860002C05D0686A204385
:1007000068622846FFF703FFBDE8F09F70B504005C
:1007100003D094F8200010B104E0012070BD204601
:1007200000F082F82068016841F00101016000F0EA
:10073000DDFB0546052604E000F0D8FB401B0A2837
:1007400011D820684068C007F6D02068016821F001
:100750000201016000F0CAFB05460BE000F0C6FB99
:10076000401B0A2806D9606A40F40030606284F8B1
:100770002060D2E7206840688007EFD4207E0128FF
:10078000206801683DD021F080010160607E012871
:100790002068016838D021F040010160A07E012866
:1007A0002068016833D021F020010160E07E01283B
:1007B000206801682ED041F010010160207F0128DF
:1007C0002068016829D021F008010160607F0128BC
:1007D0002068016824D021F004010160D4E90201FD
:1007E0000843D4E90412114308436168491E0843D1
:1007F0002168C86100206062012084F82000002088
:1008000070BD41F08001C0E741F04001C5E741F013
:100810002001CAE721F01001CFE741F00801D4E739
:1008200041F00401D9E70000F0B587B00446142177
:100830006846FFF7A2FD3E4B3E48DFF8F0E019683E
:10084000D4F800C03B4A03250226092710300024B3
:10085000491CF4452AD11960012907D1016841F0EA
:1008600000710160006800F000700590106840F0B1
:10087000080010601068CDE9005600F00800CDE9CE
:10088000047069462C48CDE9024500F00FFA0022B9
:100890001146132000F098FB132000F087FB002284
:1008A0001146142000F090FB14203BE0DFF88CE0B0
:1008B000F44539D1D0F800C04CF0806CC0F800C0CD
:1008C000D0F800C001290CF0806CCDF814C019607C
:1008D00007D1016841F000710160006800F000700C
:1008E0000590106840F002001060106802AB00F044
:1008F000020005904FF44050CDE9000683E8B000B7
:1009000069460F4800F0D2F9002211463F2000F05E
:100910005BFB3F2000F04AFB00221146402000F024
:1009200053FB402000F042FB07B0F0BD00640040E4
:100930000000002030380240000C024000680040F7
:100940000004024070477047704770477047704717
:100950007047704770477047704770472DE9F04106
:100960000446876D00F0C2FA064694F8350000256B
:10097000022806D08020606584F834500120BDE84C
:10098000F0812068016821F016010160206841694A
:1009900021F080014161206C08B9A06C20B1206871
:1009A000016821F0080101602068016821F001015F
:1009B00001600CE000F09AFA801B052807D920207E
:1009C0006065032084F8350084F83450D7E7206848
:1009D0000068C007EED194F85C103F208840B860F2
:1009E000012084F8350084F834500020C7E790F8DF
:1009F0003510022903D0802141650120704705216F
:100A000080F835100068016821F0010101600020C4
:100A1000704700002DE9F84304464FF00009CDF877
:100A2000009063484FF41651A56D0068B0FBF1F7D4
:100A30002E6894F85C10082000FA01F131420FD0C2
:100A400021680A6852070BD50A6822F004020A607E
:100A500094F85C108840A860606D40F0010060650B
:100A600094F85C104FF0010808FA01F0304208D009
:100A700021684969090604D5A860606D40F002004C
:100A8000606594F85C1004208840304208D02168EA
:100A90000968890704D5A860606D40F004006065AE
:100AA00094F85C1010208840304218D02168096802
:100AB000090714D5A86020680168490304D50068B7
:100AC000000308D5A16C07E00168C90503D40168DB
:100AD00021F008010160216C09B12046884794F893
:100AE0005C1020208840304231D021680968C90656
:100AF0002DD5A86094F8350005282068016806D037
:100B0000490347D5006800031DD4616C1CE021F047
:100B1000160101602068416921F080014161206C6B
:100B200008B9A06C20B12068016821F008010160BB
:100B300094F85C103F208840A86084F8358084F8E1
:100B40003490216D1FE0E16B09B120468847606D4C
:100B500000282BD0606DC00714D0052084F8350024
:100B60002068016821F0010101600098401C00909C
:100B7000B84203D820680068C007F6D184F83580F1
:100B800084F83490E16C002910D001B02046BDE813
:100B9000F04308470168C905D5D4016821F0100168
:100BA000016084F8358084F83490CCE7BDE8F883A0
:100BB000100000202DE9F041044600F097F90646A8
:100BC0005CB1022084F83500002584F83450206898
:100BD000016821F0010101600DE00120BDE8F08114
:100BE00000F084F9801B052805D9202060650320CA
:100BF00084F83500F2E720680068C007F0D1226869
:100C0000116820480140D4E901031843D4E90336B0
:100C10003343184363691843A3691843E3691843CE
:100C2000236A18430843616A042903D1D4E90B13EA
:100C300019430843106020684069666A20F0070184
:100C400030460E43012704280CD1A06A0643E06A0F
:100C500040B12046FFF72EFC20B14020606584F8AB
:100C60003570BAE7206846612046FFF70FFC94F81C
:100C70005C203F2191408160656584F835700020DB
:100C8000ACE700003F8010F070B5044600F02EF98C
:100C90000546601C02D004480078044400F026F9A0
:100CA000401BA042FAD370BD040000202DE9F84F8C
:100CB000DFF8F8A1002201240AF1040B03254FF00C
:100CC0000F090BF1040E00BF0B6804FA02F6334063
:100CD000B34270D10F7907F00307012F01D0022F23
:100CE00016D187684FEA420805FA08FC27EA0C0784
:100CF000D1F80CC00CFA08FC4CEA070CC0F808C08C
:100D00004768B7430E79C6F3001696403E434660E7
:100D10000E79F643B6070AD0C7684FEA420C05FAC7
:100D20000CF6B7438E6806FA0CF63E43C6600E79A1
:100D300006F00306022E10D1D60800EB8608D8F87C
:100D4000206057074FEAD76C09FA0CF7BE430F69CA
:100D500007FA0CF73743C8F8207006684FEA420CD0
:100D600005FA0CF7BE430F7907F0030707FA0CF7F3
:100D7000374307604E6816F4403F1CD04C4E37682E
:100D800047F480473760366822F0030706F4804650
:100D90000096484E07EB060CDCF8086897073F0FF3
:100DA00009FA07F826EA0806DFF80C81404503D166
:100DB0004FF0000841E072E0DFF80081404502D1C9
:100DC0004FF0010839E0DFF8F880404502D14FF0DC
:100DD000020832E0DFF8EC80404502D14FF0030812
:100DE0002BE0DFF8E480404502D14FF0040824E016
:100DF000DFF8D880404502D14FF005081DE0DFF84C
:100E0000D080404502D14FF0060816E0DFF8C480DC
:100E1000404502D14FF007080FE0DFF8BC804045A5
:100E200002D14FF0080808E0DFF8B080404502D159
:100E30004FF0090801E04FF00A0808FA07F848EAFD
:100E40000608CCF80888DAF800605746D1F804C0E4
:100E50009E435FEACC3C00D51E433E60DBF8006059
:100E60005F46D1F804C09E435FEA8C3C00D51E4328
:100E70003E60DEF800607746D1F804C09E435FEA2A
:100E8000CC2C00D51E433E60084F0C373E68D1F88D
:100E900004C09E435FEA8C2C00D51E433E60521C6A
:100EA000102AFFF411AFBDE8F88F0000003C0140AC
:100EB000443802400030014000000240000402407B
:100EC00000080240000C02400010024000140240E2
:100ED00000180240001C0240002002400024024092
:100EE0000AB1816170470904FBE70000014880688E
:100EF0007047000004000020024881680278114415
:100F000081607047040000200B4810B5016841F46F
:100F100000710160016841F480610160016841F481
:100F200080710160032000F06FF80F2000F006F8D8
:100F300000F024F8002010BD003C024070B50D4DBB
:100F400004464FF47A712878B1FBF0F00A49096839
:100F5000B1FBF0F000F00CFB48B9102C07D20022D6
:100F60002146501E00F030F800206C6070BD01205A
:100F700070BD000004000020100000200A4808B5E1
:100F8000016841F480410160006800F480400090F5
:100F90000548001F016841F080510160006800F0C1
:100FA0008050009008BD000044380240002809DB52
:100FB00000F01F02012191404009800000F1E02073
:100FC000C0F8001170470000F0B40E4B1B680C46CF
:100FD000C3F30223C3F10705042D00D90425191D0D
:100FE000072901D2002300E0DB1E012606FA05F1E5
:100FF000491E214099409E40761E16403143F0BC68
:1010000000F0D1BF0CED00E0064900F007020868CF
:101010004FF6FF03184040EA0220034A10430860DD
:10102000704700000CED00E00000FA052DE9F047E4
:101030000E46050065D0DFF81481D8F80000F7B23D
:1010400000F00F00B04207D288F80070D8F8000016
:1010500000F00F00B04254D128683D4C810712D5F2
:10106000400703D5206840F4E0502060287800074E
:1010700003D5206840F4604020602068A96820F013
:10108000F000084320602878C0072DD030496868F8
:101090000839012812D0022813D0032811D009687A
:1010A000890700292DDA216821F00301014321601D
:1010B000FFF71CFF814641F2883A0EE00968890378
:1010C000EFE709688901ECE7FFF710FFA0EB0901E2
:1010D000514502D90320BDE8F0872068696800F017
:1010E0000C00B0EB810FEFD1D8F80010404601F0B2
:1010F0000F01B14207D90770006800F00F00B0423D
:1011000001D00120E7E72878400705D52068E96885
:1011100020F4E050084320602878000706D52068B6
:10112000296920F4604040EAC100206000F038F8EE
:101130002168084AC1F30311515CC84006490860A0
:1011400006480068FFF7FAFE0020C4E7003C0240B2
:101150000838024046200008100000200800002047
:101160000448054900680968044AC1F38221515CBA
:10117000C840704710000020083802405620000880
:101180000448054900680968044AC1F34231515CCA
:10119000C840704710000020083802405620000860
:1011A000154810B5006810F00C02144813D014490B
:1011B000042A0FD0082A0ED10F4C241F226823685E
:1011C00002F03F025B0207D52068C0F38810A0FB45
:1011D000010106E0084610BD2168C1F38811A1FB9A
:1011E00000010023FFF752F82168C1F30141491CB7
:1011F0004900B0FBF1F010BD083802400024F400B3
:10120000001BB7002DE9F84F04006ED02078DFF8FE
:101210004C93C007A9F104054AD009F10400016804
:10122000C1F38101012908D00068C0F381000228C0
:101230000AD1D9F80000400206D52868800337D5C6
:1012400060680028E1D033E06068B0F5803F10D0DE
:10125000B0F5A02F286810D020F4803028602868CE
:1012600020F4802028606068A8B1FFF73FFE0646A2
:101270000DE0286840F48030F4E740F480202860D6
:10128000F7E700BFFFF732FE801B642873D8286899
:101290008003F7D50CE0FFF729FE064605E000BF06
:1012A000FFF724FE801B6428F0D828688003F7D459
:1012B0002078DFF8AC8280074FF0000A3ED5A748BF
:1012C000001D016811F00C0F08D00068C0F3810008
:1012D00002280BD1D9F80000400207D42868800703
:1012E00016D5E068012800D112E033E1E068B8B11A
:1012F0000120C8F80000FFF7F9FD064605E000BF31
:10130000FFF7F4FD801B0228C0D828688007F7D5B6
:101310002868216920F0F80040EAC10028600DE04B
:10132000C8F800A0FFF7E2FD064604E0FFF7DEFD87
:10133000801B02281FD828688007F7D42078000770
:1013400022D5864F87486169703771B101210160EC
:10135000FFF7CCFD064604E0FFF7C8FD801B02281E
:1013600009D838688007F7D50EE0C0F800A0FFF76D
:10137000BDFD064605E082E0FFF7B8FD801B0228B0
:101380007DD838688007F7D42078400768D5DFF823
:10139000CCB100270BF13C0BDBF80000C0000BD4F4
:1013A000DBF8001041F08051CBF80010DBF80000B2
:1013B000012700F0805000906B4E3068C00510D4BB
:1013C000306840F480703060FFF790FD009005E0D9
:1013D000FFF78CFD0099401A022850D83068C005EC
:1013E000F6D55E4EA0686C3601280FD0052830680F
:1013F00010D020F001003060306820F00400306030
:10140000A068B8B1FFF772FD00900FE0306840F0BF
:101410000100F4E740F004003060F7E7FFF766FDF5
:101420000099411A41F28830814266D830688007BD
:10143000F4D50EE0FFF75AFD009007E0FFF756FDE8
:101440000099411A41F28830814256D830688007AD
:10145000F4D42FB1DBF8001021F08051CBF800104C
:10146000A069C8B33D49091D0968C1F3810102297A
:101470004AD00228504607D0C8F8600000E03CE09F
:10148000FFF734FD04463BE04746C8F86000FFF72D
:101490002DFD064605E000BFFFF728FD801B022852
:1014A0002BD828688001F7D4D4E907010843A16A42
:1014B0002E4A490802EB0141626A41EA821108435F
:1014C00094F82C1040EA0161C9F800100120386638
:1014D000FFF70CFD044606E03EE000BFFFF706FD07
:1014E000001B022809D828688001F7D534E000BF26
:1014F000FFF7FCFC001B022802D90320BDE8F88F8F
:1015000028688001F4D427E00128F7D0D9F800003A
:10151000E26900F4800191421CD1226A00F03F018F
:10152000914217D147F6C071626A0140B1EB821F48
:1015300010D1A26A4FF0FF3300F4403103EB5202A6
:10154000B1EB024F06D194F82C1000F07060B0EBB4
:10155000016F01D00120D1E70020CFE7043802401D
:1015600000004742800E4742007000400000FFFF2D
:1015700010B5401EB0F1807F01D3012010BD4FF0A7
:10158000E02460610F21601700F00DFD0020A061D4
:1015900007202061002010BD70477047F8B5016832
:1015A00004460868CA684B6910F00F0F4FF0000539
:1015B00059D003F0010602F49077374365D0C10794
:1015C00005D0D10503D5216C41F00101216441070B
:1015D00005D5D90703D0216C41F0020121648107B0
:1015E00005D5D90703D0216C41F00401216401071E
:1015F00007D502F02001314303D0216C41F00801EE
:101600002164216C00293AD0800604D5900602D5C9
:10161000204600F09EFB20684069216CC0F38010DA
:10162000090700D460B3204600F06CFB20684069D5
:10163000400621D52068143050E8001F21F04001F9
:1016400040E80012002AF5D1A06BA8B16C490165F1
:10165000A06BFFF7CCF9002811D0A06B016D01B091
:10166000BDE8F040084783060FD593060DD5204608
:10167000BDE8F84000F06DBB2046FFF78EFFF8BDD7
:101680002046FFF78AFF2564F8BD266B2023012E34
:1016900079D1C60677D5D60675D508684868009012
:1016A0004869400640D5A16B086840680004000CFA
:1016B000EAD0A28D8242E7D9E085C869B0F5807F83
:1016C0002DD020680C3050E8001F21F4807140E8D4
:1016D0000012002AF5D12068143050E8001F21F0D4
:1016E000010140E80012002AF5D12068143050E8CA
:1016F000001F21F0400140E80012002AF5D184F8D3
:101700003E30256320680C3050E8001F21F01001A6
:1017100040E80012002AF5D1A06BFFF71FF9A08D59
:10172000E18D401A81B229E0A08DE18D401A81B28D
:10173000E08D0028A8D00029A6D020680C3050E801
:10174000002F22F4907240E80026002EF5D1206888
:10175000143050E8002F22F0010240E80026002E4D
:10176000F5D184F83E30256320680C3050E8002F16
:1017700022F0100240E80023002BF5D12046FFF7AD
:101780000BFFF8BDFFE705062BD5150629D594F804
:101790003D002128F5D1A068B0F5805F01D1206916
:1017A000B0B1206A411C2162216800784860E08C59
:1017B000401E0004000CE084E3D12068C16821F0E1
:1017C0008001C1602068C16841F04001C160D8E774
:1017D000206A0088C0F308004860206A801C2062EC
:1017E000E5E74006CDD55006CBD5CA68204622F0A5
:1017F0004002CA6084F83D3000F025F9C1E70000DE
:10180000F51C000870B5040004D094F83D000025D4
:1018100010B106E0012070BD84F83C50204600F075
:1018200023F8242084F83D002068C16821F4005189
:10183000C160204600F0EEFA2068016921F4904171
:1018400001612068416921F02A0141612068C16875
:1018500041F40051C1602564202084F83D0084F8E3
:101860003E00002070BD00002DE9F04186B0064624
:1018700014216846FEF781FD3E4F31683E48022242
:10188000032308250024B9421DD13B4910310E68BD
:1018900046F080460E60096801F0804105910168BC
:1018A00041F0100101600068694600F010000590E9
:1018B000D8018DE81500CDE903353048FFF7F6F97A
:1018C00006B0BDE8F0812E4FB942F9D12A49143152
:1018D0000F6847F020070F60096801F020010591AB
:1018E000016841F0400101600068694600F0400075
:1018F00005904FF484408DE81500CDE9033521486B
:10190000FFF7D4F9214D20484FF4806887052860FF
:10191000C5E90174C5E903486C61AC61EC612C62F6
:1019200028466C62FFF746F908B1FEF7EEFDB56395
:10193000AE63164D144860357830E5E80207402064
:10194000A5E81101114845F814496030AC61EC611B
:101950002C626C62FFF72EF908B1FEF7D6FD7563B5
:10196000002211464720AE63FFF72EFB4720FFF70A
:101970001DFBA5E70078004030380240001002400F
:10198000001401400018024028640240EC000020CE
:10199000704700002DE9F843044690F83D001F46CB
:1019A00016460D4620284CD1C5B1BEB194F83C0076
:1019B000012846D0012084F83C004FF00008C4F80C
:1019C0004080212084F83D00FFF790FAA6848146EC
:1019D000E684A068B0F5805F03D004E00120BDE894
:1019E000F883206928B12E465FF0000584F83C801A
:1019F0000EE00026FAE78021204600F091FAA0B917
:101A0000AEB116F8010B21684860E08C401EE084FE
:101A1000E08C4B464FF0000200970028EBD14FF0CE
:101A20004001204600F07CFA30B10320D7E735F8BA
:101A3000020BC0F30800E6E7202084F83D000020F8
:101A4000CDE70220CBE77047FEE700000F4810B556
:101A50000D4901600321416000214FF4A022816003
:101A6000C0E903124FF4C0024261017641768176EB
:101A7000C17601774177FEF749FE002803D0BDE823
:101A80001040FEF742BD10BD00640040140000206D
:101A90000F4810B50D4901600321416000214FF44A
:101AA000A0228160C0E903124FF4C00242610176B6
:101AB00041768176C17601774177FEF727FE0028CF
:101AC00003D0BDE81040FEF720BD10BD0068004007
:101AD0003C0000200D4808B5016841F48001016018
:101AE0000068002200F48000009011463920FFF7C2
:101AF0006BFA3920FFF75AFA002211464520FFF70A
:101B000063FABDE808404520FFF750BA303802407C
:101B10002DE9F04186B014216846FEF72EFC2A48D4
:101B20000024016841F040010160016801F04001BA
:101B30000591016841F002010160016801F00201B4
:101B40000591016841F001010160016801F00101A6
:101B50000591016841F008010160016801F0080188
:101B60000591016841F080010160016801F0800188
:101B70000591016841F0100101600068134F00F009
:101B80001000059001223C213846FFF7A9F9DFF843
:101B90004080FE14002231464046FFF7A1F93C2068
:101BA00000900125CDE90154694638460394FFF7BA
:101BB0007DF80096CDE90154694640460394FFF74D
:101BC00075F806B0BDE8F08130380240001C0240D4
:101BD000001002400C4810B50A4901604FF4E13191
:101BE0004160002181600C22C160C0E90412816162
:101BF000C161FFF707FE002803D0BDE81040FEF7E3
:101C000084BC10BD00780040640000200C4810B572
:101C10000A4901604FF4E1314160002181600C22EA
:101C2000C160C0E904128161C161FFF7EBFD0028CA
:101C300003D0BDE81040FEF768BC10BD00140140A1
:101C4000A8000020FEE7FEE770477047FFF754B991
:101C500030B593B030216846FEF78FFB14210CA8F5
:101C6000FEF78BFB1D480025016841F080510160A3
:101C7000006800F0805011901948016841F440411B
:101C800001600068022400F440401190012003909C
:101C900010200490009406940820CDE90750A82055
:101CA000CDE9090404200B906846FFF7ABFA08B1B0
:101CB00072B6FEE70CA90F2081E831004FF4A05066
:101CC0000F904FF48050109005210CA8FFF7AEF94B
:101CD000002801D072B6FEE713B030BD4038024094
:101CE000007000400248016841F4700101607047D3
:101CF00088ED00E010B5806B0021C185C184FFF73D
:101D00004CFC10BD01680C3151E8002F22F4907298
:101D100041E80023002BF5D10168143151E8002F70
:101D200022F0010241E80023002BF5D1016B0129CB
:101D300009D101680C3151E8002F22F0100241E86E
:101D40000023002BF5D1202180F83E1000210163F3
:101D5000704708B590F83E10222901D0022008BD36
:101D600082684FF480539A4201D1016921B1816A9E
:101D70009A421BD04AB10AE00268816A5268C2F3F3
:101D800008020A80816A891C08E0026972B102684F
:101D9000526802F07F020A70816A491C8162C18D1B
:101DA000491E0904090CC18503D019E00268526874
:101DB000F1E70168CA6822F02002CA600168CA68B7
:101DC00022F48072CA6001684A6922F001024A6105
:101DD000202180F83E10016B012903D0FFF7D8FDC8
:101DE000002008BD0021016301680C3151E8002F7B
:101DF00022F0100241E80023002BF5D101680A68A7
:101E0000D20602D50A6849680091818DFFF7C4FBAC
:101E1000E6E7000070B5044600680169E26821F455
:101E20004051114301612169A068E2690843616979
:101E3000114308432168CA6849F20C639A4302437C
:101E4000CA6020684169A26921F44071114341616F
:101E500031492068884202D03049884202D1FFF7D8
:101E60008FF901E0FFF77CF9E2690023192164256D
:101E70003226B2F5004F626828D0A0FB0101930F13
:101E80009200FEF703FA0146B0FBF5F06FF018027E
:101E9000504301EB800006EB0010B0FBF5F000F0C2
:101EA000F002B1FBF5F002EB0012B1FBF5F06FF0C0
:101EB0001803584301EB800006EB0010B0FBF5F06F
:101EC00000F00F0021681044886070BDA0FB010184
:101ED00092185B41FEF7DAF90146B0FBF5F002011A
:101EE000B1FBF5F06FF01803584301EB800006EBEF
:101EF000C000B0FBF5F000F0F80002EB4002B1FBCF
:101F0000F5F0584301EB800006EBC000B0FBF5F0A4
:101F100000F00700D6E70000001001400014014067
:101F20002DE9F041984617460E460446069D27E0E7
:101F3000681C25D02DB1FEF7D9FFA0EB0800A84200
:101F40001ED920680C3050E8001F21F4D07140E801
:101F50000012002AF5D12068143050E8001F21F04B
:101F6000010140E80012002AF5D1202084F83D004C
:101F700084F83E00002084F83C000320BDE8F08196
:101F80002068006836EA000004D00020B842CFD0B4
:101F90000020F3E70120F9E70148FFF7FFBA00004E
:101FA000A8000020FEE70907090E002804DB00F165
:101FB000E02080F80014704700F00F0000F1E020EE
:101FC00080F8141D7047FEF79FFFFFF741FEFFF7F3
:101FD0009FFDFFF77FFDFFF739FDFFF759FDFFF785
:101FE00015FEFFF7F7FD00F001F8FEE75FF00100D6
:101FF00000F006F8022000F003F80320F8E70000E4
:1020000031B500246423012269460948FFF7C2FC68
:1020100007486423012269464438FFF7BBFC641C6F
:10202000322CEFDB40F6B830FEF72EFE38BD000054
:10203000A80000204FF04070E1EE100A7047000643
:10204000101600061016000000000000000001023B
:102050000304060708090000000001020304000051
:10206000802000080000002014000000E8010008A3
:102070009420000814000020FC070000040200085F
:10208000000000000100000010000000000000003F
:042090000024F40034
:04000005080001AD41
:00000001FF
